:020000040800F2
:1000000000000120C5020008CB020008CF02000852
:1000100041030008450300088D03000800000000AC
:10002000000000000000000000000000D5030008F0
:10003000D903000800000000DD030008C91400080F
:10004000F1030008F1030008F1030008F1030008C0
:10005000F1030008F1030008F1030008F1030008B0
:10006000F1030008F1030008F1030008351000084F
:10007000F1030008F1030008F1030008F103000890
:10008000F1030008F1030008F1030008000000007C
:10009000000000000000000000000000F103000864
:1000A000F1030008F1030008F1030008F103000860
:1000B000F1030008F1030008F1030008F103000850
:1000C000F1030008F1030008F1030008F103000840
:1000D000F1030008F1030008F1030008000000002C
:1000E000F1030008F1030008F1030008000000001C
:1000F000000000000000000000000000F103000804
:1001000000000000F1030008F1030008F1030008FB
:1001100000000000000000000000000000000000DF
:10012000F1030008F1030008F1030008F1030008DF
:10013000F1030008000000000000000000000000C3
:10014000000000000000000000000000F1030008B3
:10015000F1030008F1030008F1030008F1030008AF
:10016000F1030008F1030008000000000000000097
:10017000000000000000000000000000000000007F
:1001800000000000F1030008000000000000000073
:10019000F103000800B583B000F046FE384B394A41
:1001A0001360394A1360394900E02146384B9942BF
:1001B0000BD20A684B6801F10C0488689842F4D9A4
:1001C0001168196004330432F8E72E4B1A68314B7A
:1001D0009A4200D0FEE72C4B1A682F4B9A42F9D175
:1001E000274B2E4A13602E4A13602E4B05E0002049
:1001F000106004329342FAD80B462B4A934204D241
:10020000194651F8082B5B68F4E7244B1B6813B9B7
:10021000234B1B6803B1FEE701F070FA694601A8A1
:1002200000F094FD214C224BE41AA4100025AC42AE
:1002300014DC204C204BE41AA4100025AC4213DC43
:100240000099019801F062FA05461C4C1C4BE41A17
:10025000A410002C0EDC284600F04AFD144B53F885
:10026000253098470135E2E7134B53F8253098477E
:100270000135E3E7013C124B53F824309847E8E797
:10028000BABADECA0000002074A00020F4030008FF
:100290000C040008785634123254769878A0002066
:1002A0001CA100200C0400081C0400081C04000809
:1002B0001C0400081C0400081C0400081C0400089E
:1002C0001C04000808B5FFF765FF00BEFEE71EF03E
:1002D000040F0CBFEFF30880EFF309807146414A29
:1002E00010472DE9F04182B004468846124B5E6B00
:1002F0009F6B9D6A1B6B13F0020F03D00E4BDB6AE2
:10030000002B0CDB0D4800F033FDCDF800803B46A0
:1003100032462946204600F093FD00BEFEE74BF62C
:10032000AB6100F007FE0028ECD0034B4FF0004219
:10033000DA6202B0BDE8F08100ED00E008220008BA
:1003400000BEFEE71EF0040F0CBFEFF30880EFF3D2
:1003500009807146244A10472DE9F04182B00446D5
:100360008846084B5E6B9F6B9D6A074800F000FD56
:10037000CDF800803B4632462946204600F060FD1D
:1003800000BEFEE700ED00E0182200081EF0040F9A
:100390000CBFEFF30880EFF309807146134A104752
:1003A0002DE9F04182B004468846084B5E6B9F6B96
:1003B0009D6A074800F0DCFCCDF800803B463246E1
:1003C0002946204600F03CFD00BEFEE700ED00E0BF
:1003D0002422000800BEFEE700BEFEE700BEFEE7E6
:1003E00070470000E302000859030008A103000859
:0403F00000BEFEE766
:1003F400782200080000002078A00020782200085D
:10040400000000100000001078A0002020A10020AF
:080414000000001000000010C0
:1004200010B50446074B1868074BA3FB0030800942
:1004300000F090F8002221464FF0FF3000F044F821
:10044000002010BD0C000020D34D621008B50B4BEE
:100450001A6842F400721A601A6842F480621A60E4
:100460001A6842F480721A60032000F00FF80F201F
:10047000FFF7D6FF01F062F9002008BD003C024002
:10048000014B1868704700BF14A1002010B5044646
:10049000C31E042B0FD80A4AD36823F4E0631B045D
:1004A0001B0C240204F4E064234343F0BF6343F4D1
:1004B0000033D36010BDA421024800F04FFCEAE7EE
:1004C00000ED00E03820000870B505460C461646E1
:1004D0000F2A25D80F2C28D81B4BDB68C3F3022327
:1004E000C3F10702042A28BF0422191D062921D9B5
:1004F000033B4FF0FF3101FA02F224EA02049C4070
:1005000001FA03F326EA03063443002D14DB240129
:10051000E4B205F1604505F5614585F8004370BD1D
:10052000BC210A4800F01AFCD4E7BD21074800F0BE
:1005300015FCD1E70023DCE705F00F052401E4B248
:10054000034B5C55EBE700BF00ED00E038200008EE
:1005500014ED00E00138B0F1807F0AD2064B5860FC
:10056000064AF02182F823100020986007221A60C2
:1005700070470120704700BF10E000E000ED00E090
:1005800010B50446042800D038B9042C0BD0094A11
:10059000136823F00403136010BD40F2B311064842
:1005A00000F0DCFBF1E7034A136843F00403136037
:1005B000F2E700BF10E000E03820000830B583B05B
:1005C000044603680F2B29D8236813F0010F3DD090
:1005D0006368012B01D9052B25D1A34B9B6803F040
:1005E0000C03042B29D0A04B9B6803F00C03082BB1
:1005F0001ED022799D4B1A706368002B50D0FFF7F4
:100600003FFF0546984B1B6813F4003F1ED1FFF7D0
:1006100037FF401B6428F5D90320E3E1F521944816
:1006200000F09CFBD0E7FA21914800F097FBD4E75B
:100630008D4B5B6813F4800FDBD08B4B1B6813F47E
:10064000003F03D06368002B00F0C981236813F0DA
:10065000020F5DD0E368012B31D823691F2B34D8FA
:10066000814B9B6813F00C0F3AD07F4B9B6803F0D3
:100670000C03082B2FD0E368002B74D07D4B012294
:100680001A60FFF7FDFE0546774B1B6813F0020F5B
:100690005AD1FFF7F5FE401B0228F5D90320A1E14E
:1006A000FFF7EEFE0546704B1B6813F4003FCDD0FC
:1006B000FFF7E6FE401B6428F5D9032092E14FF4D2
:1006C00096716B4800F04AFBC7E740F22D1168486D
:1006D00000F044FBC4E7644B5B6813F4800FCAD19D
:1006E000614B1B6813F0020F04D0E368012B01D0AB
:1006F000012077E15C48036823F0F8032169F822C0
:1007000092FAA2F2B2FA82F201FA02F21343036001
:10071000236813F0080F50D06369012B35D8636943
:10072000002B38D0544B01221A60FFF7A9FE054672
:100730004D4B5B6F13F0020F3FD1FFF7A1FE401B43
:100740000228F5D903204DE14748036823F0F80358
:100750002169F82292FAA2F2B2FA82F201FA02F2C6
:1007600013430360D4E7434B00221A60FFF788FE6F
:1007700005463D4B1B6813F0020FC9D0FFF780FE02
:10078000401B0228F5D903202CE140F26D113848B6
:1007900000F0E4FAC3E7384B00221A60FFF770FE5E
:1007A0000546314B5B6F13F0020F06D0FFF768FE72
:1007B000401B0228F5D9032014E1236813F0040F2D
:1007C00060D0A368012B01D9052B1FD10023019311
:1007D000254B1A6C42F080521A641B6C03F0805354
:1007E0000193019B254A136843F480731360FFF75C
:1007F00047FE0546214B1B6813F4807F0CD1FFF7A1
:100800003FFE401B0228F5D90320EBE040F2971190
:10081000174800F0A3FAD9E7227A194B1A70A36897
:1008200083B1FFF72DFE05460F4B1B6F13F0020F30
:1008300028D1FFF725FE401B41F288339842F3D9B7
:100840000320CFE0FFF71CFE0546074B1B6F13F09C
:10085000020F17D0FFF714FE401B41F28833984275
:10086000F3D90320BEE000BF003802400238024046
:100870007C20000800004742800E47420070004084
:1008800070380240A369022B39D8A369002B00F00D
:10089000A880564A926802F00C02082A00F0A48050
:1008A000022B40F08880E36913B1B3F5800F2CD19F
:1008B000236A3F2B2FD8636A323BB3F5BF7F30D812
:1008C000A36A022B05D0042B03D0062B01D0082BE2
:1008D0002DD1E36A043B0B2B2FD8454B00221A6025
:1008E000FFF7CEFD0546414B1B6813F0007F2AD071
:1008F000FFF7C6FD401B0228F5D9032072E04FF434
:10090000E6713C4800F02AFABFE740F2D5113948B9
:1009100000F024FACCE74FF4EB71364800F01EFAF1
:10092000C9E740F2D711334800F018FAC8E74FF48E
:10093000EC71304800F012FACBE740F2D9112D48A3
:1009400000F00CFAC9E7E369226A1343616A47F6CB
:10095000C07292FAA2F2B2FA82F201FA02F21343E0
:10096000A26A5208013A4FF4403191FAA1F1B1FA6A
:1009700081F18A401343E16A4FF0706292FAA2F269
:10098000B2FA82F201FA02F21343184A5360184B8A
:1009900001221A60FFF774FD0446144B1B6813F024
:1009A000007F06D1FFF76CFD001B0228F5D903205C
:1009B00018E0002016E00E4B00221A60FFF760FDE1
:1009C00004460A4B1B6813F0007F06D0FFF758FD62
:1009D000001B0228F5D9032004E0002002E00120DA
:1009E00000E0002003B030BD0120FBE700380240EA
:1009F000600047427C200008214B9B6803F00C03F9
:100A0000042B3AD0082B01D01E4870471C4B586865
:100A100000F03F005B6813F4800F1ED01A4AB2FB4F
:100A2000F0F2174B586847F6C073184093FAA3F3D7
:100A3000B3FA83F3D84000FB02F0114B5B6803F478
:100A400040334FF4403292FAA2F2B2FA82F2D3402B
:100A500001335B00B0FBF3F070470A4AB2FBF0F2DF
:100A6000074B586847F6C073184093FAA3F3B3FADC
:100A700083F3D84000FB02F0DFE70348704700BF74
:100A8000003802400024F40040787D0170B504462F
:100A90000D460368013B0E2B11D8072D15D88C4B42
:100AA0001B6803F00F03AB4215D2EBB2884A1370F8
:100AB000136803F00F03AB420DD0012070BD40F26C
:100AC0003721844800F04AF9E7E74FF40E71814876
:100AD00000F044F9E3E7236813F0020F18D0A3688D
:100AE0007BB1802B0DD0902B0BD0A02B09D0B02B3D
:100AF00007D0C02B05D0D02B03D0E02B01D0F02B9A
:100B000037D1754A936823F0F003A1680B439360D3
:100B1000236813F0010F73D06368032B2FD8636829
:100B2000012B32D09A1E012A36D96B4A126812F074
:100B3000020F00F0CA8068498A6822F0030213435A
:100B40008B60FFF79DFC06466368012B2BD0022BC0
:100B500038D0032B45D0604B9B6813F00C0F4FD05F
:100B6000FFF78EFC801B41F288339842F3D90320B3
:100B7000A4E740F24F21574800F0F0F8C1E740F2F7
:100B80005621544800F0EAF8C9E7534A126812F4B3
:100B9000003FD0D1012091E74F4A126812F0007F48
:100BA000C9D101208AE74C4B9B6803F00C03042B4E
:100BB00026D0FFF765FC801B41F288339842F2D9BA
:100BC00003207BE7444B9B6803F00C03082B17D0F2
:100BD000FFF756FC801B41F288339842F2D903207C
:100BE0006CE73D4B9B6803F00C030C2B08D0FFF720
:100BF00047FC801B41F288339842F2D903205DE71D
:100C0000334B1B6803F00F03AB4209D9EAB2304BF8
:100C10001A701B6803F00F03AB4201D001204DE7AF
:100C2000236813F0040F14D0E3685BB1B3F5805F61
:100C300008D0B3F5A05F05D0B3F5C05F02D0B3F51F
:100C4000E05F36D1244A936823F4E053E1680B4314
:100C50009360236813F0080F15D023695BB1B3F5D7
:100C6000805F08D0B3F5A05F05D0B3F5C05F02D0B8
:100C7000B3F5E05F23D1184A936823F460432169F8
:100C800043EAC1039360FFF7B7FE134B9B6803F081
:100C9000F003F02292FAA2F2B2FA82F2D3400F4AA3
:100CA000D35CD8400E4B18600F20FFF7B9FB002033
:100CB00004E74FF42D71074800F050F8C2E740F206
:100CC000BB21044800F04AF8D5E70120F6E600BF52
:100CD000003C02407C200008003802406C200008E4
:100CE0000C000020014B1868704700BF0C0000206A
:100CF000FEE7000008B5034800F052F80120FFF7B6
:100D0000F7FF00BFAC20000808B503460C4A126884
:100D10005AB10B4A1068033323F003030344094A12
:100D2000934206D8064A136008BD054A0649116079
:100D3000EFE700F005FD0C2303604FF0FF30F3E711
:100D40007CA0002000FC002020A1002001230360E3
:100D5000014B0B60704700BF0400002008B50A4635
:100D60000146024800F004F8FFF7C4FFC020000865
:100D70000FB400B583B004AB53F8042B019380216A
:100D8000064800F017FD002803DD0146034800F087
:100D900047F803B05DF804EB04B0704784A000206E
:100DA00010B5044600F0D2FC0146204600F038F8A9
:100DB0000121024800F034F810BD00BF8421000872
:100DC0002DE9F04385B004460F4643560BB10E465D
:100DD0001EE0042528462146ABBE0446384605B031
:100DE000BDE8F08314F9011B04AA1A4402F8101C90
:100DF0000133AB42F6D304AA1344002203F8102CAB
:100E00004FF00408E94640464946ABBE8046761B93
:100E1000002EE3D03546102E28BF10250023E8E72A
:100E200008B5FFF7CDFF08BD08B500F093F8024AFA
:100E3000024B9A6008BD00BF0000000800ED00E012
:100E4000F8B504460D4617461E462748FFF790FFA3
:100E500021682648FFF78CFF61682548FFF788FF67
:100E6000A1682448FFF784FFE1682348FFF780FF6B
:100E700021692248FFF77CFF61692148FFF778FF6D
:100E8000A1692048FFF774FFE1691F48FFF770FF71
:100E90001E48FFF76DFF29461D48FFF769FF1D4CEF
:100EA000E16A1D48FFF764FF216B1C48FFF760FFF4
:100EB000E16B1B48FFF75CFF15F0800F0AD115F4BA
:100EC000004F0CD11748FFF753FF06991648FFF75C
:100ED0004FFFF8BD39461548FFF74AFFEFE73146A7
:100EE0001348FFF745FFEDE7EC200008FC20000861
:100EF0000C2100081C2100082C2100083C210008BE
:100F00004C2100085C2100086C2100087C210008AD
:100F10008821000800ED00E098210008A8210008C1
:100F2000B8210008E8210008F0210008C8210008C5
:100F3000D821000883691A888A4201D000207047AE
:100F40000268033A012A03D8023383610120704703
:100F5000002070470C4B1A6842F001021A60002111
:100F600099601A6822F0847222F480321A60074A6B
:100F70005A601A6822F480221A60D960044B4FF03C
:100F800000629A60704700BF0038024010300024B1
:100F900000ED00E0224B9B6803F00C03042B14D0FF
:100FA000082B16D01BB11F4B1F4A1A6002E01D4BC5
:100FB0001D4A1A601A4B9B68C3F303131B4AD15C8A
:100FC000184A1368CB4013607047164B184A1A60D2
:100FD000F0E7134B5A685B6803F03F0312F4800F8D
:100FE00013D0134AB2FBF3F20D4B5B68C3F38813C3
:100FF00003FB02F30A4A5268C2F301420132520073
:10100000B3FBF2F3074A1360D4E7074AB2FBF3F2EB
:10101000034B5B68C3F3881303FB02F3EAE700BFEB
:10102000003802400C0000200024F40034220008A4
:1010300040787D0170470000A0F16403DBB2022B11
:1010400037D80F2935D8032A33D810B4642813D0E1
:10105000652820D066281CD10C291AD915480468A7
:101060004B000321994024EA01010160046802FA5F
:1010700003F1214301600CE00F4B18684900032481
:101080008C4020EA04001860186802FA01F101435C
:10109000196010BC7047094B1868490003248C4044
:1010A00020EA04001860186802FA01F1014319608F
:1010B000EFE77047000802400000024000040240D1
:1010C000A0F16403DBB2022B03D80F2901D8012A57
:1010D00000D9704710B4642811D065281CD0662848
:1010E00018D10C2916D9124B186801248C4020EA1B
:1010F0000400186018688A4002431A600AE00D4B29
:10110000186801248C4020EA0400186018688A409E
:1011100002431A6010BC7047074B186801248C40CA
:1011200020EA0400186018688A4002431A60F1E758
:10113000040802400400024004040240A0F16403D9
:10114000DBB2022B37D80F2935D8032A33D810B495
:10115000642813D0652820D066281CD10C291AD900
:10116000154804684B000321994024EA01010160FD
:10117000046802FA03F1214301600CE00F4B186888
:10118000490003248C4020EA04001860186802FA21
:1011900001F10143196010BC7047094B1868490000
:1011A00003248C4020EA04001860186802FA01F158
:1011B00001431960EFE77047080802400800024049
:1011C00008040240A0F16403DBB2022B03D80F290C
:1011D00001D8012A00D9704764280CD0652818D09E
:1011E0006628F8D10C29F6D90AB3012303FA01F1D4
:1011F000124B1960EFE732B91031012303FA01F104
:101200000F4B19607047012303FA01F10C4B196071
:10121000704732B91031012303FA01F1094B19600B
:101220007047012303FA01F1064B19607047103132
:10123000012303FA01F1014B1960704718080240BD
:101240001800024018040240A0F16403DBB2022B34
:101250005DD80F295BD80F2A59D810B4642805D05F
:10126000652822D0662840D010BC704707290DD8C9
:101270002748036889000F248C4023EA0403036095
:10128000036802FA01F119430160EDE721480368A0
:10129000083989000F248C4023EA040303600368A3
:1012A00002FA01F119430160DEE707290DD81A4857
:1012B000036889000F248C4023EA04030360036859
:1012C00002FA01F119430160CEE7144B1C68A1F149
:1012D000080080000F21814024EA010119601C6888
:1012E00002FA00F121431960BEE70C29BCD90C4871
:1012F0000468A1F108039B000F21994024EA010131
:101300000160016802FA03F30B430360ACE7704726
:101310002000024024000240200402402404024035
:1013200024080240164B1A6842F001021A601A683B
:1013300022F480321A601A6822F080721A60104B10
:101340001B6813F0020FFAD00E4B1A6822F003024A
:101350001A601A681A601A6822F0F0021A601A6895
:1013600042F080021A601A6822F4E0521A601A6889
:101370001A601A6822F460421A601A681A6070478C
:10138000003802400838024001280BD010B1022872
:1013900010D070470B480368012202FA01F119438B
:1013A0000160704708480368012202FA01F11943FD
:1013B0000160704705480368012202FA01F11943F0
:1013C00001607047303802404038024044380240E3
:1013D00010B51D4B1A6842F004021A601A6822F018
:1013E00038021A601A681A601A6822F002021A603B
:1013F0001A6842F002021A601A6822F001021A60AA
:101400001A6842F001021A6004240BE0022221460D
:101410006420FFF711FE052221466420FFF714FF28
:101420000134E4B2072CF1D9074B1A6822F4007298
:101430001A601A6842F040021A60044A136823F0E6
:101440004003136010BD00BF003001400038004071
:1014500018B101280CD0002070470B4BD9600A4B03
:101460009B6813F0800FFAD1074BD868C0B2704761
:10147000064BD960054B9B6813F0800FFAD1034BE4
:10148000D868C0B2704700BF00300140003800404B
:10149000064B1A6822F004021A601A6822F002024F
:1014A0001A601A6842F001021A60704710E000E00A
:1014B000044B58609860034B1B6813F4803FFAD0CC
:1014C000704700BF10E000E008B5094B1B783BB93E
:1014D000084B00225A609A601A6822F001021A60D2
:1014E000054B1B6803B19847024B1B6808BD00BF42
:1014F00008A1002010E000E004A1002010B504467F
:10150000002211466420FFF75DFE21460020FFF710
:101510009FFF10BD10B50446012200216420FFF793
:1015200051FE21460020FFF793FF10BD08B50122B0
:1015300000216420FFF780FD002211466420FFF7A0
:10154000BFFD002211466420FFF7F8FD012211467D
:101550006420FFF771FD002201216420FFF7B0FD38
:10156000002201216420FFF7E9FD012211466420D9
:10157000FFF728FE6420FFF79BFF00220121642073
:10158000FFF720FE0120FFF793FF012211466420A0
:10159000FFF718FE6420FFF78BFF00220121642073
:1015A000FFF710FE6420FFF783FF0122114664203D
:1015B000FFF708FE0948FFF77BFF1120FFF79EFFAA
:1015C0000748FFF775FF3A20FFF798FF0520FFF760
:1015D000A1FF2920FFF792FF08BD00BFC0D4010082
:1015E000F0490200F8B507460E4615461C462A206B
:1015F000FFF784FF0020FFF78DFF3846FFF78AFFD3
:101600000020FFF787FF3046FFF784FF2B20FFF70E
:1016100075FF0020FFF77EFF2846FFF77BFF0020C5
:10162000FFF778FF2046FFF775FFF8BD38B5054690
:101630009F2300227F211046FFF7D4FF2C20FFF7C5
:101640005DFF00240AE035F81400000AFFF762FF8E
:1016500015F81400FFF75EFF0134A4B2B4F5A04FF3
:10166000F1D338BD70B594B000240194204B1A6CAE
:1016700042F080521A641B6C03F080530193019B6B
:1016800002941C4B1A6842F440421A601B6803F42F
:1016900040430293029B0123089309934FF4800374
:1016A0000F93192310934FF4A873119304261296E5
:1016B0000723139302250E9508A8FEF77FFF0F233B
:1016C0000393049505944FF4805306930794294699
:1016D00003A8FFF7DBF9FFF705FB074BA3FB00307F
:1016E0008009FEF737FF3046FEF74AFF14B070BDA1
:1016F0000038024000700040D34D621008B5FEF77C
:10170000A5FEFFF7AFFFFFF745FC08BD08B5FFF7E3
:1017100009FE00210846FFF737FE0C210220FFF7E3
:1017200033FEFFF7B5FEFFF753FEFFF7FFFE02485B
:10173000FFF77CFFFBE700BF1000002070470000B0
:10174000014B1868704700BF10A00020034613F833
:10175000012B002AFBD1181A0138704730B5141E2E
:1017600005469BB0184605DA8B232B604FF0FF30FF
:101770001BB030BD4FF40273ADF80C3014BF04F150
:10178000FF332346029305934FF6FF7300910491B4
:10179000ADF80E3002461E9B6946284600F072F8EE
:1017A000431CBCBF8B232B60002CE1D0009B00228C
:1017B0001A70DDE707B5009313460A460146034851
:1017C0000068FFF7CBFF03B05DF804FB10A000201A
:1017D0002DE9F0478E689E4282460C469046994617
:1017E00037D88A8912F4906F31D0256809696F1A49
:1017F0006569022305EB450595FBF3F509F1010346
:101800003B449D4238BF1D46530530D5294600F064
:1018100079FB064650B90C23CAF80030A38943F07F
:101820004003A3814FF0FF30BDE8F0873A462169BD
:1018300000F0F6FAA38923F4906343F08003A381B8
:10184000266165613E44ED1B2660A5604E464E450F
:1018500000D94E4632464146206800F0ECFAA368B3
:101860009B1BA36023681E4426600020DCE72A46F9
:1018700000F0A2FB06460028E2D12169504600F0A4
:10188000F3FAC8E72DE9F04F9DB0804603938B89AA
:101890001D060C4616460FD50B696BB9402100F0AA
:1018A00031FB2060206128B90C23C8F800304FF0CC
:1018B000FF30C7E0402363610023099320238DF8A4
:1018C000293030238DF82A304FF0010B37463D4642
:1018D00015F8013B0BB1252B3ED1B7EB060A0BD017
:1018E0005346324621464046FFF772FF013000F072
:1018F000A480099B534409933B78002B00F09D8002
:1019000000234FF0FF32CDE90523049307938DF8B0
:1019100053301A932F46052217F8011B4F4800F049
:101920002FFA049BD0B9D90644BF20228DF853204A
:101930001A0744BF2B228DF853202A782A2A15D063
:10194000079A2F4600200A25394611F8013B303B03
:10195000092B4DD9B8B10FE02F46B8E73F4A801A9E
:101960000BFA00F0184304903D46D3E7039A111D8B
:1019700012680391002A01DB079204E0524243F00F
:101980000203079204933B782E2B0CD17B782A2BF1
:1019900033D1039B1A1D1B680392002BB8BF4FF075
:1019A000FF33023705932E4D39780322284600F085
:1019B000E7F938B14023401B03FA00F0049B0343CE
:1019C00001370493397827488DF8281006227E1CA9
:1019D00000F0D6F9002838D0234B13BB039B073304
:1019E00023F0070308330393099B4B4409936DE7E6
:1019F00005FB023201200F46A6E7002301370593BD
:101A000019460A25384610F8012B303A092A03D91D
:101A1000002BC8D00591C6E705FB0121012307462D
:101A2000F0E703AB00932246104B04A94046AFF306
:101A30000080B0F1FF3F8146D6D1A3895B063FF518
:101A400036AF09981DB0BDE8F08F03AB0093224676
:101A5000064B04A9404600F081F8EAE7442200085A
:101A60004A2200084E22000800000000D11700089A
:101A70002DE9F04791461F468A680B69DDF8208002
:101A80009342B8BF1346C9F8003091F84320064688
:101A90000C4612B10133C9F800302368990642BFE1
:101AA000D9F800300233C9F80030256815F0060572
:101AB00007D104F1190AE368D9F800209B1AAB4258
:101AC00028DC94F843302268003318BF01239206C3
:101AD0002DD404F1430239463046C047013020D0AE
:101AE0002368E568D9F8002003F00603042B08BF3B
:101AF000AD1AA36822690CBF25EAE575002593425B
:101B0000C4BF9B1AED184FF000091A344D451AD185
:101B1000002008E00123524639463046C0470130D4
:101B200003D14FF0FF30BDE8F0870135C3E7E1187E
:101B30005A1C302081F84300224494F8451082F862
:101B400043100233C5E70123224639463046C047D9
:101B50000130E6D009F10109D8E700002DE9F04392
:101B600001F1430C0C46097E85B06E2917460646E6
:101B700098460C9A00F0B38022D8632936D00AD850
:101B8000002900F0B980582900F0838004F1420553
:101B900084F8421032E0642901D06929F6D1206826
:101BA0001368050603F104012AD51B681160002B98
:101BB00003DA2D225B4284F843206F480A2239E081
:101BC000732900F09D8008D86F2920D07029DDD1BD
:101BD000236843F02003236003E0752917D0782998
:101BE000D4D1782384F84530644855E01368191D32
:101BF0001B68116004F1420584F8423001238CE037
:101C00001B68116010F0400F18BF1BB2CFE71368BC
:101C10002568181D1060280601D51B6802E06806BB
:101C2000FBD51B8854486F2914BF0A2208220021C3
:101C300084F843106568A560002DC0F29580216886
:101C400021F004012160002B3DD1002D40F08E8059
:101C50006546082A0BD12368DB0708D5236962682B
:101C60009A42DEBF302305F8013C05F1FF35ACEBAD
:101C700005032361CDF800803B4603AA2146304688
:101C8000FFF7F6FE01304DD14FF0FF3005B0BDE853
:101C9000F083394884F84510136821681D1D1B68BE
:101CA00015600A060BD5CA0744BF41F02001216028
:101CB0001BB9226822F0200222601022B7E74D06ED
:101CC00048BF9BB2EFE76546B3FBF2F102FB11336D
:101CD000C35C05F8013D0B460029F5D1B9E713684F
:101CE00025686169181D106028061B6801D51960F8
:101CF00002E06A06FBD51980002323616546B9E737
:101D00001368191D11601D6862680021284600F0E3
:101D100037F808B1401B606063682361002384F8D2
:101D20004330A7E723692A4639463046C047013089
:101D3000AAD023689B0713D4E068039B9842B8BFDE
:101D40001846A3E701234A4639463046C0470130CA
:101D50009AD00135E368039A9B1AAB42F2DCEBE7B9
:101D6000002504F11909F5E7002BACD1037884F8BC
:101D7000423004F142056CE7552200086622000853
:101D800001F0FF01102A2BDB10F0070F08D010F82C
:101D9000013B013A8B422DD010F0070F42B3F6D130
:101DA000F0B441EA012141EA014122F007047FF049
:101DB00000070023F0E80256083C85EA010586EAA0
:101DC000010685FA47F5A3FA87F586FA47F6A5FADC
:101DD00087F68EB9EED1F0BC01F0FF0102F00702E8
:101DE00032B110F8013B013A83EA010313B1F8D193
:101DF0000020704701387047002D06BF3546033874
:101E0000073815F0010F07D1013015F4807F02BFAC
:101E1000013015F4C03F0130F0BC0138704700BFFD
:101E200010B5431E0A44914200D110BD11F8014B78
:101E300003F8014FF7E7884210B501EB020307D81A
:101E4000421E99420AD011F8014B02F8014FF8E7FF
:101E50008342F5D98118D21AD34200D110BD13F8AC
:101E6000014D01F8014DF7E738B50546002945D089
:101E700051F8043C0C1F002BB8BFE41800F0D2F856
:101E80001F4A1368104633B9636014602846BDE8E2
:101E9000384000F0C8B8A3420CD9216862189342B8
:101EA00004BF1A685B68636004BF52182260046054
:101EB000ECE713465A680AB1A242FAD919685818D1
:101EC000A0420BD120680144581882421960DDD12C
:101ED000106852685A6001441960D7E702D90C2390
:101EE0002B60D3E7206821188A4204BF116852682A
:101EF000626004BF091821605C60C7E738BD00BF9D
:101F00000CA1002070B5CD1C25F0030508350C2D63
:101F100038BF0C25002D064601DBA94203D90C234E
:101F20003360002070BD00F07DF8214A146821461E
:101F300091B9204C23681BB9304600F063F820604B
:101F40002946304600F05EF8431C24D10C23336050
:101F5000304600F068F8E4E70B685B1B18D40B2BE5
:101F60000FD90B60CD50CC18304600F05CF804F16E
:101F70000B00231D20F00700C31AD3D05A42E250B1
:101F8000D0E78C424B6816BF636013600C46EBE7EA
:101F90000C464968CCE7C41C24F00304A04205D0D9
:101FA000211A304600F02EF80130CFD02560DBE753
:101FB0000CA1002010A10020F8B5074614460E46DB
:101FC00021B91146BDE8F840FFF79CBF22B9FFF7E1
:101FD0004BFF25462846F8BD00F026F8A0420FD258
:101FE00021463846FFF78EFF05460028F2D03146DD
:101FF0002246FFF715FF31463846FFF735FFE9E780
:102000003546E7E738B5064C002305460846236009
:10201000FEF77AFE431C02D1236803B12B6038BD62
:1020200018A100207047704751F8043C181F002B7E
:10203000BCBF0B58C01870472E2E2F737973746570
:102040006D2F7372632F73746D333266342D686134
:102050006C2F73746D3332663478785F68616C5FAF
:10206000636F727465782E6300000000000000004A
:102070000102030401020304060708092E2E2F7330
:10208000797374656D2F7372632F73746D33326659
:10209000342D68616C2F73746D3332663478785FD9
:1020A00068616C5F7263632E6300000061626F722F
:1020B0007428292C2065786974696E672E2E2E008D
:1020C0006173736572745F706172616D2829206637
:1020D00061696C65643A2066696C6520222573220B
:1020E0002C206C696E652025640A000053746163BE
:1020F0006B206672616D653A0A0000002052302044
:102100003D2020253038580A0000000020523120A0
:102110003D2020253038580A00000000205232208F
:102120003D2020253038580A00000000205233207E
:102130003D2020253038580A00000000205231325E
:10214000203D20253038580A00000000204C522045
:102150003D2020253038580A000000002050432040
:102160003D2020253038580A0000000020505352EE
:10217000203D20253038580A000000004653522FD9
:102180004641523A0A0000002043465352203D2067
:1021900020253038580A00002048465352203D2060
:1021A00020253038580A00002044465352203D2054
:1021B00020253038580A00002041465352203D2047
:1021C00020253038580A0000204D4D464152203D10
:1021D00020253038580A00002042464152203D2038
:1021E00020253038580A00004D6973630A0000004A
:1021F000204C522F4558435F52455455524E3D2076
:10220000253038580A0000005B48617264466175E9
:102210006C745D0A000000005B4275734661756C6A
:10222000745D0A005B55736167654661756C745D2A
:102230000A0000000000000000000000010203048A
:1022400006070809232D302B2000686C4C006566BA
:1022500067454647003031323334353637383941F7
:10226000424344454600303132333435363738390D
:072270006162636465660012
:102278007856341280A00020000000000024F400EA
:10228800E0FDE0FDC0FDC0FDC0FDC0FDA0FD40FDBE
:1022980061BB2489C8E9C7D9C7E1C7E1C8E9048196
:1022A80086B9C8E9C7E1C7E1C7E1A8E12371C1CB95
:1022B80000E440ECC09A0589C8E9C7D9C8E1C7E17C
:1022C800C8E945A14591C8E9C7D9C7E1C8E1C8E14E
:1022D800C8E1C8E1C7E1C7E1A7E1C8E946A10192A1
:1022E800C0F3C0F3E0FBE1B2469166A1001882A2F8
:1022F800C0FB60E3A0EBA0EBA0EB80EBA1EBA2B2EC
:1023080040E360EB60AA0589C8E9C7E1C7E1C8E115
:10231800237160AA2471C8E1A7E1C7E1C7E1C8E950
:102328002591E099A0D2226987C9C8E9A7E1A7E168
:10233800C7E1A7E1A7E1C7E1A7E1C7E1C8E187D104
:10234800C24881C3E0E3217A47B1C8E9C7E1C7E1E0
:10235800C7D986C1C8E1C7E1C7E1A7E1C7E967B93D
:102368004151C0DBC17987C1C8E9A7D9C8E926A10D
:10237800C19A80FCA0F480FDE0FDC0FDC0FDE0FD39
:10238800E0FDE0FDC0FDC0FDC0FDC0FDA0FD00FDFD
:1023980040AB0589C8E9C7D9C7E1C7D9C8E90481ED
:1023A80087C1C8E9C7E1C7E1C7E1A8D94371E0DB44
:1023B80020EC40EC60B30479C8E9A7D9C8E1C7E1CB
:1023C800C8E946B10589C8E9C7D9C7E1C8E1C8E184
:1023D800C8E1C8E1C8E1C7E1A7D9E8E92699419A67
:1023E800C0F3C0EBC0F321C32481E8E9459160380C
:1023F800619AA1F380EBA0EBA0EBA0EBA0EB80EB44
:1024080080EB80EBC0B20481C8E9C7D9C7E1C8E155
:102418002379209A2379C8E1A7E1C8E1C7D9E8E977
:10242800E478C181E1E2617187B9C8E9C7E1C7E130
:10243800C7E1C7E1C7E1C7E1C7E1C7E1A7E1E8E94B
:10244800E468408200ECE17967C1C8E9C7E1C7E107
:10245800C7E1C7D9C7E1C7E1C7E1A7D9E8E9E5807E
:10246800618200ECE17967C1C8E9C7D9C8E926A14A
:10247800A19280F480F460FDE0FDC0FDE0FDE0FD88
:10248800E0FDE0FDE0FDE0FDC0FDC0FDA0FDC0FCFD
:1024980000AB2591C8E9A7E1A7E1C7E1C8E9E4785D
:1024A80087C9C8E1C8E1C7E1C7E187D1A27920E4BB
:1024B80040EC40F4C0D32371A8E1A8E1A7E1C8E14A
:1024C800C8E987B90481C8E9C7D9C7E1C8E1C8E143
:1024D800C8E1C8E1C7E1A7E1A7D9E8E9258980A251
:1024E800A0F3C0EBA0F340D34379C8E9E8E967A9B2
:1024F8004130218AA0F360EB80EBA0EBA0EBC0F3A6
:10250800A0EB80EBE0C22481C8E9C7E1C7E1C8E9D4
:102518002481C0892481C8E9A7E1C7E1C7E1C8E9E6
:1025280045994018A179817966B1C8E9A7E1C7E161
:10253800C7E1C8E1C8E1C7E1C8E1C7E1C7E1C8E947
:1025480067C12149C1D3A17187C9C8E1C8E1C7E101
:10255800C7E1C8E1C7E1C7E1C8D9C7D9A8D9E250DE
:1025680081C3E0EB018267B9C8E9C7E1C8E947A9B7
:10257800819280F4A0F420FDC0FDC0FDC0FDC0FD27
:10258800E0FDE0FDC0FDC0FDC0FDE0FD60FD80FC9C
:10259800E1A22699C8E9C7D9A7E1C7E1C7E1E4786C
:1025A800A7D1C8E1C7E1C7E1C8E167C1028260EC11
:1025B80060EC40EC00E46271A8D1C8E1C8E1A7E191
:1025C800C8E1A7C9E478C8E1A7E1C7E1C8E1C8E163
:1025D800C8E1C8E1C7E1C7E1A7D9C8E92581C0BA00
:1025E800C0F3C0F380EB60E301592691E8E1E8F11C
:1025F800A7C142380182A1EB60EBA0EBA0EBC0F3CE
:10260800A0F3A0F300CB2479C8E1C7E1C7D9C8E992
:102618004591A0712589C8E9A7E1C7E1A7E1C8E10B
:10262800E8E166A14138401866A9C8E9C7E1C7E1F1
:10263800C7E1C7E1C7E1C7E1C7E1C7E1C8E1A7E171
:10264800C8E9C368E0A2A27987D1C7E1C7E1C7E1B9
:10265800C8E1C8E1C7E1A7E1A7E1C8E92699E169AE
:10266800E0EBE0E3218267B9C8E9C7E1C8E947B10F
:10267800618A80F4A0F4E0FCA0FDE0FDC0FDE0FD6F
:10268800E0FDE0FDC0FDE0FDC0FDE0FD20F580FCC3
:10269800C19226A1E8E9A7E1C7E1C7E1C7D9E4707B
:1026A800A7D9C8E1C7E1C7E1C8E947B9218260EC09
:1026B80060EC60EC40ECC27988C9C8E9C7E1C8E1C0
:1026C800C8E1A7D1E478C8E1C7E1C7E1C8E1C8E13A
:1026D800C8E1C8E1C7E1C7E1A7E1C8E9047900C3D7
:1026E800A0F3A0F380EB82EB429A6030825086B967
:1026F80008F2C8C94240027AA1EB60E3A0EBC0F33C
:10270800A0F3A0F320CB2371C8E1C7E1C7E1C8E972
:10271800459940614599C8E9C7D9C7E1C7E1C8E10A
:10272800A7E1C7E9C8D162282599C8E9C7E1C7E187
:10273800C8E1C7E1C7E1C8E1C8E1C7E1A7E1C8D975
:10274800E8E926A1E169827987D9C8E1C7E1C8E14A
:10275800C8E1C7E1C8E1C8E1A7E1C8E1E35821AB96
:1027680000E400E4218A46B1C8E9A7E1C7E947B90E
:10277800418280F4A0F4C0FC80FDE0FDC0FDC0FDF6
:10278800E0FDE0FDC0FDC0FDC0FDC0FDE0F480F44B
:10279800818A26A9E8E9A8D9C7E1C7E1C7D9E470C1
:1027A800A7D9C8E1C7E1C7E1C8E947B1418260F4E8
:1027B80060F460EC60F4028267C1C8E9C7E1C8E16F
:1027C800C7E1A7D9E470A7D9C7E1A7E1C8E1C8E183
:1027D800C8E1C8E1C7E1C7E1C7E1C8E1037920D38F
:1027E800A0F3A0F341D3205142A2E2C2616141307B
:1027F800048108EAC7D14240018A80F380E3C0F32C
:10280800C0EBA0F340D32379C8E1A7E1C7E1C8E949
:1028180045A1005145A1C8E9A7E1C7E1C8E1A7E181
:10282800C8D9A7D9E8F1C3500481E8F1C7E1C7E1E5
:10283800C7E1C8E1A8E1A7E1C7E1C7E1C7E1C8E18D
:10284800C8E1A7D102494369A8E1C7E1A7E1C8E106
:10285800C8E1C8E1C7E1A7E1C8E167B16159E1DBB7
:10286800E0DB20E4418A46A9C8E9C7E1C8E967B9BD
:10287800218280F480F4C0FC40FDE0FDC0FDC0FD75
:10288800E0FDE0FDC0FDC0FDE0FDA0FDA0F480F48A
:10289800618A46B1C8E9C8E1A7E1C8E1C7D9E478C7
:1028A800C7D9C7E1C7E1A7E1C8E947B1418A80F4C0
:1028B80080F460EC80F4218247B9C8E9A7E1C7E158
:1028C800C7E1C8D9E470A7D9C8E1C7E1C8E1C8E140
:1028D800C8E1C8E1C8E1C7E1C7E1A7D9237160DB56
:1028E800A0EBE0F3E1818458A248C140827162AA5A
:1028F800A1408350C8D9C7D14138819A80F380E379
:10290800A0EBA0EB40DB2379A8E1C7E1C7D9C8E970
:1029180065A9E14066A9C8E9A7E1C7E1C7E1C7E140
:10292800A8E1A7E1C8E982400479C8E9C7D9C7E1A5
:10293800C7E1A8E1A8E1A7E1C7E1C8E1C8E1A7E1CB
:10294800C7E1E8E9C358A250C8E9A7E1A7E1C7E190
:10295800C7E1C7E1C8E1C7E1E8E926A1A161E1E370
:10296800E0DB20EC619246A9C8E9C7D9C7E967C18D
:10297800E17960EC80F4C0FC00FDC0FDE0FDC0FD25
:10298800E0FDC0FDC0FDC0FDE0FD60FD80F480F409
:10299800218247B1C8E9C7E1C7E1C8E1A7D1E47816
:1029A800C8E1C7E1C7E1A7E1C8E947B1418A60F4D6
:1029B80080F480F480F4618A46B1C8E9C7E1C7E1D0
:1029C800A7E1C7D9E478A7D9C7E1C7E1C7E1C8E15A
:1029D800C8E1C8E1C7E1C7E1C8E1A8D1427180E315
:1029E800A0EBA0EB8271E8E14599A350A350A03871
:1029F80042A220616238C7C1A8C96130C2BA80F357
:102A080080EBA0EB40DB4379A8D9C7E1C7E1C8E96F
:102A180066B1A13086B9C8E9C7E1A7E1C8E1C7E155
:102A2800C7E1C7E1C8D9C2480471C8E9C7E1C7E12D
:102A3800C7E1C8E1A7E1C7E1C7E1C7E1C7E1C8E16C
:102A4800C7D9C8F10589C358E8F1A7D9C7E1C7E1D3
:102A5800C8E1C8E1C7E1C8E1C7E1A8D12259A0CBC4
:102A6800E0DB00EC618A26A1C8E9C7E1C7E967C9CC
:102A7800C17960EC60F4C0FCE0FC80FDE0FDC0FDC5
:102A8800C0FDE0FDC0FDC0FDE0FD40FD80F480F428
:102A9800017A67C1C8E9C7E1C7E1C8E1A7C9E47815
:102AA800C8E1C7E1A7E1C7E1C8E947B1418A60F4D5
:102AB80080F480F480F4618A46A9C7E9C7E1C7E1D8
:102AC800C7E1C7E10479A7D1C8E1C8E1C8E1C7E116
:102AD800C7E1C8E1C7E1C8E1C8E187C98279A0EBCD
:102AE800A0EBA0E38389A8D9E8E1E8D14599623849
:102AF800C25082BAE140413087B187B1A13842DB88
:102B0800A0F380EB40DB4379A8D9C7E1C7E1C8E966
:102B180086B9612887C1C8E9C7E1C8E1C7E1C7E14B
:102B2800C7E1C8E1A7D101512371C8E1A7E1C7E115
:102B3800C7E1C8E1C8E1C8E1C7E1C8E1C7E1C7E149
:102B4800C7E1C7E966A9E478C8E9A7D9C7E1C8E138
:102B5800C8E1C7E1C7E1A8E1A7D9C8E9047101A3A1
:102B680000E401DCA26967B9C8E9A7E1C7E167C960
:102B7800C27940E460ECA0FCC0FC60FDE0FDC0FD53
:102B8800E0FDC0FDC0FDE0FDC0FD00FD80F480F467
:102B9800E27967C9C8E1C7E1C8E1C8E187C1048132
:102BA800E8E9A7E1C7E1C7E1C8E947B9218260F4CC
:102BB80080F480F480F4819246A9E8E9C8E1C7E18D
:102BC800A7E1C7E1E478A7D1C8E1C8E1A7E1C7E177
:102BD800C8E1A8E1C7E1C7E1C8E947B9A179A0F30D
:102BE800A0EBA0EB8281A8D9058966B9A7D9E8E14D
:102BF8002481C13861380141813887B12691415912
:102C0800A1EB80EB40DB4379A8D9C7E1C7E1C8E96C
:102C180087B9412887C9C8E9C7E1A7E1C7E1A8E1A1
:102C2800A8E1C8E987C141612379A8E1C7E1C8E102
:102C3800A7E1C8E186C187B1E8E1C7E1C8E1A7E13A
:102C4800C7E1C8E966A90489C8E9A7D9C7E1C7E106
:102C5800A7E1C7E1A7E1C8E1A7E1E8E926A1218248
:102C680000E480C30361A8E1C7E1C7E1C7E187D1F8
:102C7800826920E440ECA0F4C0FC20FDC0FDC0FD4A
:102C8800C0FDC0FDC0FDE0FDA0FDC0FC80F460EC0F
:102C9800C27987C9C7E1C7E1C7E1C8E986C104812C
:102CA800C8E9C7D9C8E1C8E1C8E967C1018260ECD1
:102CB80060F480EC80F4819246A9C7E9A7E1C7E1F6
:102CC800C7E1C7D9E478A7D9C7E1C7D9C7D9A7E168
:102CD800A8E1A8E1C7E1C7E1C8E946B1E189A0F3E5
:102CE800A0EBC0EBA28187C981400471A7C966A97E
:102CF80045A16238E7C1E25860200008A7B1C46066
:102D0800218AA0F340DB4379A8D9C7E1C7E1C8E12C
:102D180087C14128C7D1C8E1C8E1C7E1C7E1A7E138
:102D2800C7D9E8E966B161712279A8D9C7E1C7E1D5
:102D3800C7D9E8E92499001867B9C8E9A7E1C7E144
:102D4800C7E1E8E945A12591C8E9C7D9A8E1A7E104
:102D5800C8E1C7D9C7E1C7E1C7E1C8E967C1A26946
:102D680000E4C09A0579C8E9A7D9C7E1C7E1C8E175
:102D7800C25041BB40F480F4C0FCE0FCA0FDE0FD83
:102D8800C0FDC0FDC0FDE0FD60FDC0FC80F440EC6E
:102D9800A27187D1C7E1C7E1C7E1C8E966B904896B
:102DA800C8E9A7D9C7E1C8E1C8E167C9E27940EC39
:102DB80060F460EC80F4828A46A9C8E9C7E1C8E1FA
:102DC800C7E1C7D9E478A7D9C8E1C7D9C7E1C8E13D
:102DD800A8E1C8E1C7E1A7E1E8E946A12192C0F36B
:102DE800A0EBE0F3018A46A943716489258962381A
:102DF800A7C10489C7E1C350E46841286138A8C95C
:102E0800627180EB40DB4379A8D9C7E1A7E1C8E943
:102E180087C16238C8D9A8E1A7E1C7D9A7E1C7E146
:102E2800A7E1C8E946A1C081427988D1C8E1C7E1D4
:102E3800A7E1C8E966A1E138C358C8E1C7E1C7E11D
:102E4800C7D9C8E9259946A1C8E9A7D9C8E1C8E101
:102E580066A9A7D1C7E1A8E1C7E1C7E1A8D9426936
:102E6800C0D3E17146A9C8E9C7E1C7E1C7E1E8E90C
:102E78000699E26941F460ECA0FCC0FC80FDC0FD4D
:102E8800C0FDC0FDC0FDC0FD20FDA0FC80F420E415
:102E98008371A7D9C8E1A7E1C7E1C8E966A925896F
:102EA800C8E9A7D9C7E1C7E1C7E188D1827120E4A1
:102EB80060EC60EC80F4618A46B1C8E9A7E1C7E13B
:102EC800C7E1A7D9E478A7D9C7E1A7E1A7D9A7C1DE
:102ED800C8E1A8E1C7E1C7D9E8E9259160A2C0FB2C
:102EE800A0F3E0FB80A226A10471C1404591C25025
:102EF80087B1C7D925916130E9F186A96240A8C98F
:102F0800627160E340DB4371A8D9C7E1C7E1C8E15A
:102F180087C9A350C8E1A8E1C7E1C7E1C7E1A7C1D4
:102F2800C8D1C8F12591209A617987C9C8E1C8E15B
:102F3800C7E1C8E946A9C181216967B9C8E9C7E1FC
:102F4800A7E1C8E9248946A9C8E9C7E1A7E1E8E9F2
:102F5800A2502591C8F1A7E1C7E1C7E1C8E12371F3
:102F680041AB426187D1C7E1C7E1C7E1C7E1A7E14A
:102F7800C8D9E358C1C360EC80F4A0FC40FDE0FD73
:102F8800C0FDC0FDA0FDA0FDE0FC80F460F400DC05
:102F98006371A8E1C8E1C7E1A7E1C8E946A10479DE
:102FA800E8E9A7D9C8E1C7E1A7E1A8D9637100DCBE
:102FB80060EC40EC60EC218247B9C8E9C7E1C7E1A1
:102FC800C8E1A7D1E478C7E1C7E1C8E986B90481B7
:102FD800C8E9A7E1C7E1A7E1C8E92589A0AAC0FB1C
:102FE800C0F3C0FB00BB258966A9835865A1215998
:102FF80046A9E8F94591A248A7D9E8E187B9A360AD
:10300800C03860EB40DB4379A8D9C7E1C7E1C8E124
:1030180087C9C360C8E1A8E1C8E1A7E1E8E9E478A5
:103028006240E8E1259160AA818167B9C8E9C8E1F1
:10303800C7E1C8E946B18181C1892691C8E9C7E1DC
:10304800C7D9C8E9048966B1C8E9C7E1C7E1C8E9D1
:10305800C248C350C8E9C7E1C8E1A7D9C8E9448153
:10306800417A0471C8E9A7E1C7E1C7E1C7E1A7E16F
:10307800C8E9E590418280F480ECA0F400FDC0FD31
:10308800C0FDA0FDA0F560F5A0F480F460F4E0D3E5
:103098004371A8E1C7E1C7E1C7E1C8E94599C36839
:1030A800E8E9A7D9C7E1C7E1C7E1C8E14471A1CB05
:1030B80040EC40EC40ECE27967C1C8E1C7E1A8E127
:1030C800C8E1A7C9E470C8E1A7D9C8E946A1624028
:1030D800C8E9A7E1C8E1A7E1C8E90481E0BAC0FBF3
:1030E800E0F3E0F380E32269C8D1E8E966B1415131
:1030F8004599E8F145A18140A7D10489A8D1236960
:10310800629A60E340DB4379A8D9C7E1C8E1C8E126
:10311800A7C9E470C8E1C7E1C7E1A7E1C8E924810C
:10312800C03083500469C1C2C18147B1C8E9C7E151
:10313800A8E1C8E187B9617900A20581E8E9C7D9A2
:10314800C7D9C8E9048187B9C8E9A7E1C7E1A8D9FF
:103158006371425967C1C8E9C7E1C7D9C8E9659928
:10316800414946A1E8E9C7E1C7E1C8E1C7E1C7E1CC
:10317800C8E1A8D1E250E1D360F480F4E0FCA0FDFE
:10318800C0FDA0F580F520F560F460EC40ECA0CB24
:103198004479C8E1A7E1C7E1A7D9C8E925918248E0
:1031A800C8E9C7E1C7E1C7E1C7E1E8E9248120B37D
:1031B80040EC20E420E4A27187D1C8E1C8E1C7E16E
:1031C800C8E187C10479C8E9A7D9C8E92591612868
:1031D800A7D1C8E1C7E1A7D9C8E9047920CBC0FBCA
:1031E800E0F3E0F3E0FBE179258908EA66A92259D2
:1031F8006489E8F166B1823866A9602847A983899D
:1032080061DB40E340DB4371A8D9C7E1C7E1C8E10E
:10321800A7C90479C8E1C7E1C7E1A7E1C8E904790A
:10322800C1BA8169412021DBE18946A9C8E9A7E142
:10323800C7E1C7E187C1427120AA0479C8E9A7E1BB
:10324800A7E1C8E90479A7C9C8E1C8E1C7E187D1FE
:103258008279017A25A1C8E9A7E1C7D9C8E94591CA
:103268006120A7D1C7E1C7E1A7E1A7E1C7E1A8E1CC
:10327800A7D9E8F1C578618A60F480ECA0FC40FD2C
:10328800A0F580F560F5A0EC40EC40EC20EC80BBAC
:103298002479C8E9C7E1C7E1A7E1C8E92589613010
:1032A800C8E1A7E1C8E1A7E1A7E1C8E92599818AB2
:1032B80020EC00E4C0D34269A8D9C8E1C8E1C8E15C
:1032C800C8E966B10481C8E9A7D9C8E124812151B8
:1032D80066B1C8E9C7E1C7D9C8E1237140D3C0F3D3
:1032E800E0F3E0F3C0F341D3A2484238C458235175
:1032F8004481E8E986B982384599215946A1638114
:1033080000D340EB40DB4371A8D9C7E1A8E1C7E18E
:10331800A7D1E478C8E1C7E1C7E1A7E1A8E1237133
:10332800A0CA41E362A260E320922699C8E9C7E1F6
:10333800C7E1C7E1A7C9427120AA0479C8E9A7E192
:10334800C7E1C8E1E478A7D1C7E1C8E1C7E167C12F
:10335800A27980920591C8E9C7D9C7D9C8E9259942
:10336800A248E8E9A8E1C7E1C8E1C8E1C7E1C8E1C6
:10337800A8E1C8E187C1225121DC60ECA0F4E0F4A7
:10338800A0F560F561F5A0F440F420E400E440B352
:103398002479C8E9A7D9C7E1A7D9C8E92589A238F6
:1033A800A7D1C8E1C7E1C7E1C7E1C8E947B9E271F8
:1033B80000E4E0E360B32471C8E9A8D9C7E1C7E134
:1033C800C8E946A12591C8E9A7D9C8E12371C181F7
:1033D8000589E8E9A7E1A8E1A8D9427160E3C0F34B
:1033E80000FC00FCC0F3C0F3C2B2017A0251001025
:1033F800A3480579A7C1A13866A1A13825894489C0
:10340800E0C260EB40DB4371A8D9C7E1A7E1C8E19E
:10341800A7D1E478C8E1C7E1C7E1C7E1A8D922711B
:10342800E0CA20E380EB60EB609A0591C8E9A7E168
:10343800C7E1C7E1A8D12271009A0481C8E9A7E1D0
:10344800C7E1A8D9E470C7D9C7E1C7E1C8E167B93E
:10345800C179C1A20581C8E9C7D9C7E1C8E946A1B0
:103468002589E8E9A7D9C7E1C7E1C7E1A7E1C7E12D
:10347800A8E1A7E1E8E9C468C19A60F480F4A0F47F
:1034880000FE01B4A149417A01A382BBE1DB22AB72
:103498002581C8E9A7D9C7E1C7D9C8E94591214914
:1034A80066B9C8E9A7E1A8E1C7E1C8E1A8D90261FE
:1034B800A0CBE0E3A1920589C8E9A7D9C7E1C7E194
:1034C800C8E9258965A1C8E9C8E187D1226980AA28
:1034D800E370C8E1A8D9C8E187D1627980EBC0F36D
:1034E80000FC00FCE0F3C0EBC0EBA0F3E1C281A25A
:1034F80021592020C46002498699C460E48045911E
:10350800A0B260EB20DB4279A8D9C8E1C7E1C8E1E5
:10351800A7D1E478C8E1C7E1C8E1C7E1A7D122692A
:1035280000D340E360E380EB80AA2589C8E9A7E1DE
:10353800C7E1A7E1A8D94379A1792591E8E9C7E1CD
:10354800C8E1A7D1E470C8E1A7E1C7E1C8E966B15D
:10355800E181A1A20589C8E9C7D9C7D9C8E946A99F
:103568004599C8E9A7E1C7E1A8E1C8E1A7E1A7E152
:10357800C7E1A7E1C8E967B9415940EC60ECA0F49C
:1035880020FEC1AB2328624841286028E038213951
:103598002589E8E9A7D9C7E1A7D9C8E94489A05985
:1035A80026A1C8F1A8D9A8E1A8E1C7D9C8E9C4707B
:1035B800818A21EC615967B9C8E9C7E1C7E1C7E168
:1035C800C8E9E48086B9C8E9C8E167C1617100D378
:1035D800026187D1C8E1C8E167C18279A0EBE0F355
:1035E80000FC20FC00FCE0F3C0EB80EB80EB80F3F8
:1035F80081DBE2B2E14820922481E8D9C7E1269133
:1036080060A260EB20D34279A8D9C7E1C7E1C7E13E
:10361800A7D1E478C7E1C7E1C7E1C7E187C942712B
:1036280000DB40E360E380EBA0B22481C8E9C7D99E
:10363800C7E1A7E1C8E12371C14887B9C8E9C7E173
:10364800C8E1A7C9E478C8E1C7E1A7D9C8E946A194
:10365800418A21822599C8E9A7E1C7E1C8E945A1BE
:103668002599C8E9A7D9C7E1C8D9C7E1C7E1A7E142
:10367800A7E1C8E1A7E1C8E9C46041AB80F4A0ECC8
:10368800E0FD60BC458908F2C7C966A9E580A34882
:1036980066A9C8E9C7E1C7E1C7E1C8E14481218259
:1036A8002489E7E9A7D9A8D9A7E1C7E1C8E986B974
:1036B800C140C161A358C8E1A7E1C7E1C7E1A7E1DB
:1036C800C8E1E470A7C9C8E1C8E946A9C18140EBCF
:1036D800627167B9C8E9C8E967B9C181A0F3E0F3C5
:1036E80020FC20FC00FCE0FBE0F3C0F380F380EB5F
:1036F80080EB80EB62E341E3416167B1C7D146A942
:10370800019260EB00D34379C8D9C7E1C8E1C8E1A9
:10371800A7D1E478C8E1C7E1C8E1C7E167C1627928
:1037280000E340DB60E360EBE0C22479C8E1C7D97D
:10373800C7E1A7D9E8E9A3508248E8E9C7E1A7E1CA
:10374800C8E987C10481C8E9C7E1C7D9C8E946996A
:10375800026AE148A7C1C8E1C7E1A7D9C8E9459904
:1037680045A1C8E9A7E1A8E1A7E1A7E1C8D9C8E14F
:10377800C7E1A7E1A8E1C8E946A9C16161F440F43D
:10378800C0FDC1CC4471A8E9C8E1C8E9E8E908E28C
:10379800C8E1C7E1C8E1C7E1C7E1C8E9E360A151F1
:1037A800E358E9E1E8E9E8E9C7E1A7E1A7E1C7E902
:1037B8002591423887B9C8E1C7E1A7E1C7E1C7E168
:1037C800A7D1A348C7D1A7E1C8E90591209260EB2A
:1037D800018A2591C8E9C8E946A9018AC0F3E0F33E
:1037E80000FC20FC20FC00FCE0F3E0F3C0F3C0EB9D
:1037F800A0F380F380EB80EB61AA2120825087C17F
:10380800A28160EB00D34379A8D9C7E1C8E1C7E139
:10381800A7D1E478C8E1C7E1C7E1C8E167B90251B7
:1038280022D340E340E360E300CB2371A8E1A7E1A2
:10383800A7E1C7D9C8E9259187B9C8E9A7E1C7E1D0
:10384800C8E966B10481C8E9A7D9A7D9E8E92489F4
:1038580000080581C8E9C8E1C7E1A7D9C8E92591E9
:1038680046A1C8E9C7E1A7E1C8E986B10581E8E949
:10387800A7D9C7E1A8E1A7E1E8E1C358A1BBA0FC2B
:1038880080FD00DD437188E1C7E1A7E1A7E1A7E179
:10389800C7E1C7E1C8E1C7E1C7E1C8E10589212857
:1038A80000186240E4686699A7D1C7E1C7E1A8E1BA
:1038B800E8E1E8E1C7E1C7E1C8E1C7E1C8D9C8E183
:1038C80066B94020A7C9C7E1C8E90479A1B260F385
:1038D80080B20479C8E9C8E926A14192C0FBE0F3A7
:1038E80020FC20FC20FC20FC00FC00F400F4C0FBC1
:1038F800C0F3C0F3A0EBA0EB80E3A1B2426967B9C3
:10390800637960E300D34379A8E1C7E1C7E1C8E17F
:10391800A7D1E478C8E1C7E1C7E1C8E1A7D9624007
:10392800C040C1BA61EB40E300CB2371C8D9C8D10C
:10393800C8E1A7E1A7E1C8E1C8E1A7E1A7E1C7E1BC
:10394800C8E965A92589C8E9C7D9A7E1C8E166B169
:103958002591E8E1C7E1C7E1A8E1C7D9E8E9058908
:1039680066A9C8E9C7E1C8E1E8E925814120C8D9C5
:10397800A8E1A8E1C7E1A7E1E8E92691E16901FD2D
:1039880060F520ED827187D1C8E1C7E1C7E1C8E1E0
:10399800C7E1C7E1C7E1C7E1C8E1A8E1E8D9C8C9FB
:1039A80087A90479824820180481E8E9A7E1C7E1DA
:1039B800C7E1A7E1C7E1C8E1C7E1C7E1A8D9C8E9FC
:1039C8002599C13866B1C8E9C8E1237100CB60EB1D
:1039D80000D32369A8D9C8E9259180A2C0FBE0F3E8
:1039E80020FC20FC20FC20FC20FC00FC00FC00FC4F
:1039F800E0F3E0F3C0F3A0EB80EBC0F3219246A91B
:103A0800448120D300D32379C8E1A7E1C7E1C7E106
:103A1800A7D1E478C8E1C7E1C7E1C7E1C8E1E8D1C7
:103A2800E3604020028A41DB00DB226962482020F3
:103A3800058108DAC7E1A7D9C8D9C7E1C7E1A7E175
:103A4800E8E945A12591C8E9A7D9C7E1A8E1C8E1F6
:103A5800E8E9C8E1A8E1A7E1E7E1C7E1C8E9247915
:103A680086B9C8E9C8E1C8E1A8E12369A16125913F
:103A7800E8E9A7E1A7E1C7E1C8E1C8D9E250A1BBDD
:103A880080F500F5E27967C1C8E1A8E1C7E1C8E1BE
:103A9800C8E1C7E1C7E1C7E1C7E1A8E1A7E1C7E11C
:103AA800C8E9E8E909EA45892591C8E9A7E1C7E134
:103AB800C8E1C8E1C8E1C7E1C8E1C7E1A7E1C8E1D9
:103AC800237181714599C8F1A8D1436940E360EB3E
:103AD80060EB627167C1C8F12589A0B2E0F300F418
:103AE80000FC20FC20FC20FC20FC00FC00FC00FC6E
:103AF80000FC00FCE0FBC0F3A0EB80F3A0B2259132
:103B08002591C0BA20D32379A8E1C7E1C7E1C7E16D
:103B1800A7D1E478C8E1C7E1C7E1A8E1A7E1A8E92E
:103B2800E8E946A12120E08921EBC1402A73C54973
:103B380000088348C8D1C7E9A7E1C7E1C7E1C7E1E1
:103B4800C8E9259145A1C8E9C7E1C8E1C8E1C7E1CD
:103B5800A8E1C8E1A7E1E8E967B9A8C9C8E9E3703D
:103B6800A7C9C8E1C7E1C8E967B9816160C3C250A4
:103B7800C8E1C7E1C7E1C7E1A8E1E8F10471006A5B
:103B880080F5E0F4418247B1C8E9A7E1C7E1C7E1A0
:103B9800C7E1C7E1A8E1C7E1A8E1A8E1C8E1A7E159
:103BA800C7D9A7D9C7E9248166B1C8E9A7E1C7E1A0
:103BB800C7E1C7E1C8E1C8E1C7E1C7E1C8E1A8C9F1
:103BC800226140A20479E8F187B9817980EB80EB22
:103BD800A0F3E18946A1E9F10479E0C2C0F300FC51
:103BE80020FC20FC20FC20FC00FC00FC00FC00FC6D
:103BF80000FC00FC00FCE0FBC0F3A0F340D34489C8
:103C080067A161A220D30371C8E1C7E1A7E1C8E1B8
:103C1800A7D1E478C8E1A7E1C7E1A7E1C7D9C8D926
:103C2800A7D9E8F147A1C18160B2476235FF8AB4DC
:103C3800849B01312130C7B9E8E9A7D9C7E1C7D9C1
:103C4800E8E9248945A9C8E9C8E1C7E1C7E1C7E1AE
:103C5800C8E1A8E1E8E9058121186138A7C1E47045
:103C6800C7D9C7E1A7E1E8E90581608A20ECA1612D
:103C780046A1E8E9C7E1C8E1C8E1A8D1025922D4C0
:103C880060F5C0FCA1922699E8E9A7E1C7E1A8E19F
:103C9800C8E1C8E1C7E1C7E1C8E1C8E1C7E1C7E1D8
:103CA800C7D9C7D9C8E1E470A7C9C8E9C7E1C7E15E
:103CB800C8E1C8E1A7E1C7E1A7E1A7E1E8E92591E3
:103CC800A181C0C20371E8E946A9E189A0F3A0EB8C
:103CD800C0F380AA0489E8F1037120D3C0F300FC83
:103CE80020FC20FC00FC00FC00FC00F400F400FCBC
:103CF80000FC00FC00FC00FCE0F3C0F3C0EB4269F0
:103D08008450E18140DB0379C8E1C7E1A7E1C7E15D
:103D1800A7D1E478C8E1C7E1C7E1C8E1C8E1A8E1F3
:103D2800C8D9C8E945A1009A8079EEAC14FF4AB415
:103D380043D485D4E3510118669908EAC7E1A7E19D
:103D4800E8E9258186B1C7E1C7E1C7E1A7E1A7E1B5
:103D5800A8E1E8E9E4782010497B0C944130E47844
:103D6800C8E9A7D9C7E1C8E1E36060C320EC01A3B3
:103D7800C460C8E9A7E1A8E1E8E90591417AE0FC57
:103D880060F5A0FC21AB0589C8E9C7E1C7E1A7E157
:103D9800C7E1C7E1C7E1C8E1C7E1C7E1C7E1C8E1D9
:103DA800C7E1C8E1A7D1E368C8E1C7E1C7E1C8E155
:103DB800C7E1C7E1C7E1C7E1C8E1C8D9C8E1C36045
:103DC800A1B200DB2269C8E12591609AC0F3C0F373
:103DD800A0F300CB0371A8E1237160DBC0F300FC02
:103DE80000FC00FC00FCE0F3E0F3E0F3E0F3E0F3B8
:103DF80000FC00FC20FC20FC00FCE0F3E0FB81A2BE
:103E0800C138A17921DB2379C8E1A7E1C8E1C8E17C
:103E1800A7D1E478C8E1A7E1C7E1C7E1C7E1C7E1F5
:103E2800A7D9C8E92591E091C36972EED3FE4AACDF
:103E380023CC84D4A5DCA37A2018E478E8E1C8E987
:103E4800C8D9C350C7D1E9F1C8E1C7D9C7D9C7E1B3
:103E5800E8E1A4700131A4ABABBC35FFA539E48817
:103E6800E8E9A7E1C8E167C1826120E4E0E301E491
:103E7800425967C1C8E1A7E1C7D9E358E1CB80FC43
:103E880040F5A0FC80BB0481C8E9A8D9C7E1C8E116
:103E9800C7E1C8E1C8E1C8E1C8E1C8E1C8E1C7E1D4
:103EA800C8E1C8E986B90481C8E9A7E1C7E1C8E162
:103EB800C8E1C8E1C7E1C7E1C8D9C8E967B921596C
:103EC80041DB40E36271A8D10581E0BAC0F3C0F3D9
:103ED800A0F380E3426968C9637180EBC0F300FC1A
:103EE80000FC00FCE0FBC0F3C0F3C0F3C0F3C0F378
:103EF800E0F300FC20FC20FC00FCE0F3E0F3E0F33E
:103F0800C1E361DB00CB2379C8E1C7E1C7E1C8E1C0
:103F1800A7C90479C7E1C7D9C8E1C7E1C7E1C7E1C3
:103F2800C7D9C8E925918081E882F3FE93FEE8A30A
:103F380043CC64D463D4C5DC859BA0186240A7C178
:103F480025910008A3580479A7B9E8E9E8E9C8C9A0
:103F58008358624965C463D429AC14FFCDACE580AD
:103F6800C8E9A7D9C8E90589818A60EC20E460F42A
:103F7800A18A0571E8E9C7E92599E16980F460EC4F
:103F880000F580F4E0D32371A8E1C7E1A7E1C7E118
:103F9800C8E1C7E1C7E1C7E1C7E1C7E1C7E1C7E1D8
:103FA800A7D9E8E92599C358E8E9A7E1C7E1C7E136
:103FB800C7E1C7E1C7E1C8E1A7D9C8F1C460419A20
:103FC80060EB60EBC18167B9447940CBC0F3E0F3A3
:103FD800C0F3C0F3C17927A1A381A0EBC0F300FC13
:103FE80000FCE0F3C0F3A0EB80EB80EB80EBA0EBF0
:103FF800C0F3E0FB00FC20FC00FC00FCE0FBC0F38D
:10400800A0F3A0FB20CB2481C8E9A7D9C8E1C8E167
:10401800A7D1E470E8E9C7E9C7D9C8E1C7E1C7E1B2
:10402800A7D9C8E9448940710B9C13FF72F6C6A34F
:1040380063D464D464CC64CCA4DC26BC824100186C
:1040480000086008C120801800188250C4686138D0
:10405800636AA4D484DC43CCE7AB92FE72EEA6710B
:1040680087E1C7E1C8E1E46081C360F460F440EC33
:10407800E1DB025188D9E8E9C36060BB60F4A0F4D1
:10408800E0F480F440DC6371A8D9C7E1C7E1C7E177
:10409800C7D9A7E1C7E1C7D9C7E1A7E1C7E1C7E128
:1040A800A7D9E8E92481401886B9C8E9C7D9C7E182
:1040B800C7E1C7E1C7E1A8E1C8E966A9E14861E34A
:1040C80060E3A0F3419206996379A0E3C0F3E0F3BB
:1040D800C0F3E0FB61A2C570E289C0F3C0F3E0FB66
:1040E800E0F3C0F380EB80EBA0F380EBA0EB80EB78
:1040F800A0EBC0F300FC00FC00FC00FC00FCE0F3BB
:10410800C0F3C0F340CB0361E8E1E8E9C7E1A8E107
:10411800A8D96130C358A7C9E8E9C8E1A7D9A7E178
:10412800A7E1C8E124896069EEBC13FFF0E5A5A307
:1041380083D464CC64D464D463D483DCA5D4449B92
:10414800E482E4B365CC45C4249382498249A4A39C
:10415800C5DC64D464CC84D4A5AB11EE13FF298BE1
:1041680046C1C8E988C9626140E460F480F460EC43
:1041780080F4017A26A167C1816160EC60ECA0F44B
:10418800C0FC80F480ECC27187C9C8E1A7D9A7E157
:10419800C7E1C8D9C7D9A8E1A7E1A8E1A8E1C7E163
:1041A800A7E1C8E1437982828240C8D9C7E1A7D98B
:1041B800C7E1A7E1A8D9C7E1C8D96240A2A2A0F384
:1041C80080EBA0F3C1B2C570C281C0F3C0F300FC9C
:1041D800E0FBE0FB21C383482292C0F3C0F3E0F385
:1041E800C0F3A0EB80EB21CBE1792151A16921CB70
:1041F800A0EBA0EBE0F300FC20FC00FC00FC00FCC2
:10420800E0F3C0F381E3A14042384699E8D9E8F1E8
:1042180088D9E350E0482128C468C7C9E8E9C7E15C
:10422800A8E1C8E1238181696FCD13FF4ECDC3ABEF
:1042380084D464D464D464D464D463CC83D4C5D41F
:1042480064C484D4A4DC83D4A4DCA5DCA5DCA4DC0D
:1042580064CC64D464D484D4C4AB8FD513FF8DAC40
:1042680025A9E8F90599618280F480ECA0F480F42E
:1042780060F481C3E360C47021A380F480F4A0FCDF
:10428800C0FC80F4A0FC017A47A908EAC8F1C7E994
:10429800A7E1A7E1C7D9A8E1C8D9A8E1C7E1C7E163
:1042A800C8E187D1426901DCE1696248E8D9C7E918
:1042B800A8E1A8E1E8E9E8D983488169A1F3A0EB7E
:1042C800C0F3C0FB41D383402192E0FBE0F300FC44
:1042D80000FCE0F3A1EB82302192E0FBC0EBC0EBE5
:1042E800A0EBA0F3C2BA8128000000000000A130B2
:1042F80021CBA0F3C0EBE0FB00FC20FC20FC00FC81
:1043080000FCE0F3C0F342CBC17180284230259114
:1043180087B9A28161E3629AE1402128E468C7D1A4
:10432800E8E9A8E12379A171B0D533FFACB4C3B3F0
:10433800C3B384D464D464D464D484D425C4446A10
:1043480006830483E4B3A4D463D464D464D464CC6F
:1043580064D464D464D484D4E3BB0DCD13FF8FCD6F
:104368000361E9E9E36881BB80F4A0F4C0FCA0F430
:1043780060F480F46151E13861EC60F4A0F4C0FCB1
:10438800C0FCA0F4C0FCC19201208250048187B116
:10439800E8D908EAE8E9C7E1A7E1A7E1C8E1C7E188
:1043A800C8E967B9E17100E4E1DB8159423866A1E7
:1043B800C8D1E8D187B14240015981E3A0EBC0F3ED
:1043C800C0F3C0F3A1EB812881A200FCE0F300FC5C
:1043D80000FCE0F3E0FB215161A2C0FBA0EB80EB05
:1043E80080F302CB20180000C739694AA3100000E7
:1043F800014981EBA0F3E0F300FC20FC20FC20FC49
:1044080000FCE0F3C0F3C0F3C1F321D3C1818030D5
:104418002120616940F360EB61DB419AC0402128AB
:10442800E478A8B96279C171B0D513FF4AACC3B3B7
:10443800449B84D464D484D464D484D4C47A0EBD14
:10444800B3FE11E6678BC4B3A4D464D464D484D413
:1044580084D464D484D4E3B3E3BBACBCF3FE51EEA0
:10446800C220E588626940E480F4A0FCC0FCC0FC7E
:1044780080F480FC22ABC1A2A0F4A0ECC0FCC0FC7C
:10448800C0FCC0FCA0F441E402A3C161C0304020DC
:104498002138A46846A1C7C908EAE9E9C8E9A7E13B
:1044A800C7E92699818A20EC00E441DC2172402882
:1044B800413041304028A17181DB80EBA0F3E0F36B
:1044C800E0F3E0F3E1F3215101C300FC00F420FC28
:1044D80000FCE0F300FC228AA1B2C0FB80EB60EB99
:1044E80061E3A038A31095B5DFFFFFFFDBDE284AA4
:1044F8000000429AC0F3C0F300FC20FC20FC20FC22
:1045080020FC00FCE0F3C0F380EB60EB81F342DBBE
:10451800E181419AA0EB60E360EB80EB62DB6292A1
:10452800C13801204169C17970CD13FF4AAC439B62
:104538002493A4DC64D464D4A4DC63A34CA414FF43
:1045480092FED3FE52EEE68264CC83D464D464D463
:1045580064D464D484D4A4ABC3B38AB4D3FE92FE27
:1045680025620018418280FC80F4C0FCE0FCC0FC9D
:10457800A0F480F461F481F480F4A0F4C0FCE0FCC1
:10458800E0FCC0FCA0F480F480F461EC21DC62B3B0
:1045980062824049802821288348058987B9E8D95B
:1045A80028FA258121AB40F420EC40EC01F401CB42
:1045B800419A419A02C3A1EB80EBA0EBC0F300F44F
:1045C80000F4E0F300FC228A61DB00FC00FC00FC44
:1045D80000FCE0F3E0F321CB21D380F360E380F328
:1045E800E189620099D6FFFFFFFFDFFFFFFFBEF7FB
:1045F8006629602081E3C0F3E0F320FC20FC20FC66
:1046080020FC00FC00FCE0F3C0F3A0EB80E380EBAF
:10461800C0F3A0EBA0EBA0EBA0EB80EB60EB80F38A
:1046280082E3228A219AA1790EBD34FF6BB44372CA
:10463800A4A3A4DC64D464D484D4C57A12E6B2FEFC
:1046480092FE71FEF3FE8DAC63A3A4DC64CC64D44B
:1046580064D464D484DCC4B363A38BB4D3FEB3FE44
:104668002693017A61BB80FCA0F4C0FCE0FCE0FC6E
:10467800C0FCA0F4A0F4A0F4A0F4C0FCC0FCE0FCD2
:10468800E0FCE0FCC0F480F460EC40EC20EC20F4AA
:1046980061F441E4C2CBE29AC161C038412042389A
:1046A800A470E350E0D360F460EC60ECC0EB80EB06
:1046B800A0F3A0F3A0EB80EBA0EBC0F3E0FB00FCC1
:1046C80000FC00FC00FC62D3E0EB00FC00FC00FCFA
:1046D80000FCE0F3C0F3A0EB80E360E360EB22CBE7
:1046E800201855A5FFFFDFFFFFFFFFFFDFFFFFFFDC
:1046F80059C6000061AAC0F3E0F300FC20FC20FCCE
:1047080020FC20FC00FCE0FBE0F3C0F3C0F3A0EBCE
:10471800A0EBA0EBC0F3C0F3C0F3C0F3A0EB80EBB9
:1047280080EBA1EB81F3A0794D9C54FF8DAC402028
:10473800249BA4DC64CC84D403BC2883D3FE92FEDF
:1047480092FE92FEB2FE32EE058B84D464D464D419
:1047580064D464D4A4DCE4B382412BA4D3FED3FE96
:104768000683A1D340EC80F4C0FCE0FCE0FCE0FC54
:10477800C0FCC0FCA0F4A0F4C0F4C0FCE0FCE0FC69
:10478800E0FCE0FCC0FCA0F480F480EC60EC40E4C9
:1047980020E420EC20EC40F441EC02DC62BB6182B6
:1047A8004041815961F460F480F480F4C0F380EBF7
:1047B800A0EBA0EBA0EBC0F3C0F3E0F300FC00FC1F
:1047C80020FC20FC00FCE0FB00F400FC00FC00FCEA
:1047D80000FCE0F3A0EB60EB40E361EBC3B28028A0
:1047E800AA4AFFFFFFFFFFFFFFFFFFFFFFFFFFFFDB
:1047F800FFFFAB4AE048A1F3A0EBE0F320FC20FC6C
:1048080020FC20FC00FC00FC00FCE0F3E0F3E0F3FB
:10481800E0F3E0F3E0F3E0F3E0F3E0F3C0F3C0F338
:10482800A0EB80EBA0F320A20973B2FE4FC50149AB
:10483800C26184D463D4A4DC439B2C9CF3FE92FE17
:1048480092FE92FE92FED3FECA9B03BC84D464D42B
:1048580064D464CCC4DCA4820010AA8BF3FE92FE5C
:10486800078380D360ECA0F4C0FCE0FCE0FCE0FC33
:10487800E0FCE0FCC0FCC0FCE0FCE0FCE0FCE0FC90
:10488800E0FCE0FCC0FCC0FCA0FC80F480F480F4F8
:1048980060F440F440EC40E420E440EC40EC61F487
:1048A80061EC42E460F4A0F4A0F480F4E0F3C0F317
:1048B800C0F3C0F3C0F3E0F3E0FB00FC20FC20FCF5
:1048C80020FC00FC00FC00FC00FC00FC00FC00FCE0
:1048D800E0F3C0F380EB60EB61E3E181001041009D
:1048E8009AD6FFFFFFFFFFFFFFFFFFFFFFFFFFFF5E
:1048F800FFFF38C6601821D3A0F3E0F300FC20FCCA
:1049080020FC20FC20FC20FC00FC00FCE0FBE0FB81
:10491800E0FB00FC00FC00FC00FCE0FBE0F3E0F343
:10492800C0F3C0EBA0EB00D363418FD531E62382FF
:104938000159448BA4DCA4DCC3822FC5F3FE92FE8C
:1049480092FE92FE92FEF3FEEDBC83A3A4DC64D437
:1049580064CC83D425BC21496181CA9B92FED0DDF9
:104968002783C0D380F4A0F4C0FCE0FCE0FCE0FCAA
:10497800E0FCE0FCE0FCE0FCE0FCE0FCE0FCE0FC4F
:10498800E0FCE0FCE0FCC0FCC0FCA0FCA0F4A0F44F
:10499800A0F4A0EC80F480F460EC40EC40EC20EC57
:1049A80040EC80F4A0F4A0FCC0FC80FC00F4E0F330
:1049B800E0F3E0F3E0FB00FC00FC20FC20FC20FC22
:1049C80020FC20FC20FC20FC00FC00FC00FCE0F3A8
:1049D800C0F380EB80EB61E3816101004D638E736E
:1049E800FFFFFFFFFFFFFFFFFFFFFFFFFFFFFFFFCF
:1049F800FFFFFFFFC739209AA0F3C0EBE0F300FCEC
:104A080020FC20FC20FC20FC20FC20FC00FC00FCFE
:104A180000FC00FC20FC20FC20FC00FC00FC00FC4E
:104A2800E0FBE0F3A0EBC1F30051EB93B3F6E371C5
:104A380001A2E22885CC84D4A47211E6D2FE92FEAB
:104A480092FE92FE92FED2FED0DD649B84D464D4A2
:104A5800A4DCC5D46241015120BA0BA431EE6FCD5C
:104A6800C57A00E480F4C0FCE0FCE0FCE0FCE0FC7B
:104A7800E0FCE0FCE0FCE0FCE0FCE0FCE0FCE0FC4E
:104A8800E0FCE0FCE0FCE0FCE0FCC0FCC0FCC0F4A6
:104A9800C0F4A0F4A0F4A0F480F480F480F460F4EE
:104AA80080F4A0F4A0FCC0FCE0FC60FC00FC00FC6E
:104AB80000FC00FC00FC00FC00FC20FC20FC20FCAE
:104AC80020FC20FC20FC20FC20FC00FCE0FBE0F3A8
:104AD800A0EB80EB61DB21590000518C55ADD7BDAF
:104AE800FFFFFFFFFFFFFFFFFFFFFFFFFFFFFFFFCE
:104AF800DFFFFFFF5284E04881EB80EBC0F300FC4E
:104B080000FC20FC20FC20FC20FC20FC20FC00FCFD
:104B180020FC20FC20FC20FC20FC20FC20FC20FCAD
:104B280000FC00FCE0F3C0F3E1BA265AEC8B4059D4
:104B380061EBA1402362A4DCA57292FEB2FE92FE54
:104B480092FE92FE92FEB2FE52F6669383D444C45D
:104B580084A36249A120E138E0A1AA9B0EBDCC8BB9
:104B6800237280F4A0F4C0FCE0FCE0FCE0FCE0FC74
:104B7800E0FCE0FCE0FCE0FCE0FCE0FCE0FCE0FC4D
:104B8800E0FCE0FCE0FCE0FCE0FCE0FCE0FCC0FC5D
:104B9800C0FCC0FCC0FCA0FCA0F4A0F4A0F4A0F4ED
:104BA800A0F4A0F4C0FCC0FCE0FC40FC00FC20FC2D
:104BB80020FC00FC00FC00FC20FC20FC20FC20FC6D
:104BC80020FC20FC20FC20FC00FC00FCE0F3A0EB17
:104BD80080EB61E321590000A731DFFF518CBEF75C
:104BE800FFFFFFFFFFFFFFFFDFFFFFFFFFFFFFFFED
:104BF800FFFFFFFFBAD66110A1BA80F3A0EBE0F384
:104C080000FC20FC20FC20FC20FC20FC20FC20FCDC
:104C180020FC20FC20FC20FC20FC20FC20FC00FCCC
:104C280020FC00FCE0F3C0EBC1FBA169000041924D
:104C380080F3C2BA4018E482077BB3FE92FE92FE6C
:104C480092FE92FE92FE92FEB3FE889B63CC23C432
:104C5800E261C120C6D4E35961698261A2182108C2
:104C6800E1A2A0FCA0F4C0FCE0FCE0FCE0FCE0FC5D
:104C7800E0FCE0FCE0FCE0FCE0FCE0FCE0FCE0FC4C
:104C8800E0FCE0FCE0FCE0FCE0FCE0FCE0FCE0FC3C
:104C9800E0FCE0FCE0FCC0FCC0FCC0FCC0FCC0F4D4
:104CA800C0FCC0FCC0FCE0FCC0FC20FC20FC20FCDC
:104CB80020FC20FC20FC20FC20FC20FC20FC20FC0C
:104CC80020FC20FC20FC20FC00FCE0F3C0F380EB7F
:104CD80081E3616100002008D6BD1CE775ADFFFFC8
:104CE800FFFFFFFFFFFFFFFFFFFFFFFFFFFFFFFFCC
:104CF800FFFFFFFFDEFF6A4A826160E380E3C0EBEB
:104D0800E0F300FC20FC20FC20FC20FC20FC20FC24
:104D180020FC20FC20FC40FC40FC20FC20FC20FC6B
:104D280020FC20FC00FCE0F3A0F361DB829A60E346
:104D380060E380EB21922010C86AF3FE92FE92FE97
:104D480092FE92FE92FE92FED3FEE9A323CCA4DC4F
:104D580025B4C228C5B324C401492192228202ABDA
:104D680040E480F4C0F4E0FCE0FCE0FCE0FCE0FCA3
:104D7800E0FCE0FCE0FCE0FCE0FCE0FCE0FCE0FC4B
:104D8800E0FCE0FCE0FCE0FCE0FCE0FCE0FCE0FC3B
:104D9800E0FCE0FCE0FCE0FCE0FCC0FCC0FCC0FC8B
:104DA800C0FCE0FCE0FCE0FCC0FC20FC20FC20FC9B
:104DB80020FC20FC20FC20FC20FC20FC20FC20FC0B
:104DC80020FC20FC20FC20FC00FCC0F3A0EBA0F39E
:104DD800018A000025212842FFFF18C61CE7FFFFB3
:104DE800FFFFFFFFFFFFFFFFB294C739EB5A3CE715
:104DF800FFFFFFFFFFFFF39C0C63E091A0F380EB44
:104E0800C0F3E0F300FC00FC20FC20FC20FC40FC8C
:104E180020FC20FC20FC20FC20FC20FC40FC40FC6A
:104E280020FC20FC00FCE0FBE0F3A0F3C1FBA0EBBE
:104E380080EB60E381EB4061A86213FF92FE92FE73
:104E480092FE92FE92FE92FED3FE08A423C4A4DC36
:104E5800A4B36020E14085CC026221A221F460EC79
:104E680060ECA0F4C0FCE0FCE0FCE0FCE0FCE0FC52
:104E7800E0FCE0FCE0FCE0FCE0FCE0FCE0FCE0FC4A
:104E8800E0FCE0FCE0FCE0FCE0FCE0FCE0FCE0FC3A
:104E9800E0FCE0FCE0FCE0FCE0FCE0FCE0FCE0FC2A
:104EA800E0FCE0FCE0FCE0FCA0FC20FC40FC20FC7A
:104EB80040FC20FC40FC20FC20FC20FC20FC20FCCA
:104EC80020FC20FC20FC00FCE0F3C0EB80F3E2BAFD
:104ED8000008C731A73134A5FFFFDBDEDFFFFFFF86
:104EE800FFFFDFFFFFFF8E73214826A1837828523A
:104EF800DFF7FFFFFFFF96B5F8BDE751A0BA80EBDB
:104F080080EBC0F3E0FB00FC00FC20FC20FC20FC54
:104F180020FC20FC20FC20FC40FC40FC20FC20FC69
:104F280020FC20FC20FC00FCE0F3E0F3C0F3C0F31D
:104F3800C0F380EB80EB009A087313FF92FE92FE99
:104F480092FE92FE92FE92FED3FE29A423C4C4DCF4
:104F580023936169019AA382A4A36171C0EB20E441
:104F680060ECA0F4C0FCE0FCE0FCE0FCE0FCE0FC51
:104F7800E0FCE0FCE0FCE0FCE0FCE0FCE0FCE0FC49
:104F8800E0FCE0FCE0FCE0FCE0FCE0FCE0FCE0FC39
:104F9800E0FCE0FCE0FCE0FCE0FCE0FCE0FCE0FC29
:104FA800E0FCE0FCE0FCE0FC80FC20FC20FC20FCB9
:104FB80020FC40FC20FC20FC40FC20FC40FC20FCA9
:104FC80020FC20FC00FC00FCC0F380EB61E3C03057
:104FD8008208AF73A6319EF7FFFFDFFFFFFFFFFFD9
:104FE800FFFFFFFF139D625009F2E9F90AFA8250A8
:104FF800B6ADFFFFFFFF9AD699D638BEA13041D390
:1050080060EB80EBC0F3E0F300FC00FC20FC20FC2C
:1050180020FC20FC20FC40FC40FC40FC40FC20FC28
:1050280020FC20FC20FC00FC00FCE0F3E0F3E0F3B3
:10503800E0F3A0EBA0F3009AC86A13FF72FE92FE99
:1050480092FE92FE92FE92FED3FE09A423C4C4E40B
:105058008372808100E3C27105B4A16180DB40E402
:1050680080F4A0F4C0FCE0FCE0FCE0FCE0FCE0FC28
:10507800E0FCE0FCE0FCE0FCE0FCE0FCE0FCE0FC48
:10508800E0FCE0FCE0FCE0FCE0FCE0FCE0FCE0FC38
:10509800E0FCE0FCE0FCE0FCE0FCE0FCE0FCE0FC28
:1050A800E0FCE0FCE0FCE0FC60FC20FC20FC20FCD8
:1050B80040FC40FC40FC40FC20FC20FC20FC20FC88
:1050C80020FC20FC00FCE0F3A0EBA1EBC27900007F
:1050D8008E6BCB528E73FFFFFFFFFFFFFFFFFFFFBB
:1050E800FFFF5DE72449A7D9C9F1A8E1E9F9826082
:1050F800CA4AFFFFFFFF7DEFBAD6FFFFAF73A04894
:1051080082E360EBA0EBC0F3E0F300FC20FC20FCA2
:1051180020FC20FC20FC40FC40FC40FC20FC40FC27
:1051280020FC20FC20FC20FC00FC00FC00FC00FC17
:10513800E0FBC0F3A0F320A2876213FF92FE92FE69
:1051480092FE92FE92FE92FE93FEC7A363CCA4D475
:10515800A25941AA00E3E199649B837AC1BA60EC41
:1051680080ECA0F4C0FCE0FCE0FCE0FCE0FCE0FC2F
:10517800E0FCE0FCE0FCE0FCE0FCE0FCE0FCE0FC47
:10518800E0FCE0FCE0FCE0FCE0FCE0FCE0FCE0FC37
:10519800E0FCE0FCE0FCE0FCE0FCE0FCE0FCE0FC27
:1051A800E0FCE0FCE0FCC0FC40FC20FC20FC20FC17
:1051B80040FC40FC40FC40FC40FC20FC20FC20FC67
:1051C80020FC00FCE0F3C0EBA0F3C2BA0008A73152
:1051D800159D662938C6FFFFFFFFFFFFFFFFDFFFB2
:1051E800FFFF918CC488E9F9A8E9C8E908FAA36027
:1051F800A2089EF7FFFFFFFFBEF7FFFFDFFF083A99
:10520800E05082EB80EBA0EBE0F300FC00FC20FC1C
:1052180020FC20FC20FC20FC20FC40FC20FC20FC86
:1052280020FC20FC20FC20FC00FC00FC00FC00FC16
:10523800E0FBC0F3A0F340AA675A13FF72FE92FE88
:1052480092FE92FE92FEB2FE52F6869BA3DC04B456
:105258006261C0D2E0DAA1CA6382649B219A60F4D9
:1052680060ECA0F4C0FCE0FCE0FCE0FCE0FCE0FC4E
:10527800E0FCE0FCE0FCE0FCE0FCE0FCE0FCE0FC46
:10528800E0FCE0FCE0FCE0FCE0FCE0FCE0FCE0FC36
:10529800E0FCE0FCE0FCE0FCE0FCE0FCE0FCE0FC26
:1052A800E0FCE0FC00FDC0FC20FC20FC20FC20FC15
:1052B80040FC40FC40FC40FC20FC20FC20FC20FC86
:1052C80020FC00FCC0F3A0EB61E3C0384100728C05
:1052D800107C0842DFFFFFFFFFFFFFFFFFFFFFFF1C
:1052E800DFF7E85967D1C8F1C8E9C8E9E9F9C46046
:1052F8000000D7BDFFFFFFFFFFFFFFFFFFFF1CE719
:10530800A310616181EB80EBC0EBE0F300FC00FCD3
:1053180020FC20FC20FC20FC20FC40FC40FC40FC45
:1053280020FC40FC20FC20FC20FC00FC00FC00FCD5
:10533800E0F3C0F3A0F380B2E551D3FE92FE92FEF3
:1053480092FE92FE92FED3FEB0D54493C3E4439BF3
:10535800C189E0DAA1BA82B2E281A4AB228201EC6F
:1053680060ECA0F4C0FCC0FCE0FCE0FCE0FCE0FC6D
:10537800E0FCE0FCE0FCE0FCE0FCE0FCE0FCE0FC45
:10538800E0FCE0FCE0FCE0FCE0FCE0FCE0FCE0FC35
:10539800E0FCE0FCE0FCE0FCE0FCE0FCE0FCE0FC25
:1053A800E0FCE0FCE0FCA0FC20FC40FC20FC40FC15
:1053B80040FC40FC40FC20FC20FC20FC20FC20FCA5
:1053C80000FCE0FBA0EBA0F3018A0000CB5276A51D
:1053D8008B4AEF7BFFFFFFFFFFFFFFFFFFFFFFFF92
:1053E80059BEC468C8F9C8E9C8E9C8E9E9F9C358A1
:1053F8000000CF7BFFFFFFFFFFFFFFFFFFFFFFFF67
:10540800F7BD0000A17181F380E3C0EBE0F300FC7D
:1054180000FC20FC20FC20FC20FC40FC20FC40FC84
:1054280020FC20FC20FC20FC20FC00FC00FCE0F31D
:10543800E0F3C0F3A0EBC0C2A44993FE92FE92FE33
:1054480092FE92FE92FED2FEEEBCA3A3E4E4C38ACF
:1054580021AAC1D28138001081714393C38240C30D
:1054680080F480F4A0FCC0FCE0FCE0FCE0FCE0FC84
:10547800E0FCE0FCE0FCE0FCE0FCE0FCE0FCE0FC44
:10548800E0FCE0FCE0FCE0FCE0FCE0FCE0FCE0FC34
:10549800E0FCE0FCE0FCE0FCE0FCE0FCE0FCE0FC24
:1054A800E0FCE0FCE0FC80FC20FC40FC20FC20FC54
:1054B80040FC40FC20FC40FC20FC20FC20FC20FCA4
:1054C80000FCC0F380F321D340180519D38C149540
:1054D800C73918C6FFFFFFFFFFFFFFFFDFFFFFFF12
:1054E8001084E498E9F9C8E9C8E9C8E9E9F182381B
:1054F8000000E739FFFFFFFFFFFFFFFFFFFFFFFF90
:10550800FFFF718C0000018281F380EBC0EBE0FBB0
:1055180000FC20FC20FC20FC20FC40FC40FC40FC63
:1055280020FC40FC20FC20FC20FC00FCE0F3C0F345
:10553800C0F3A0EB80EB00D3434132E6B3FE92FE0A
:1055480092FE92FE72FE13FF0C9CC38205E5838ACD
:1055580060C28171A249636AE148027AC5AB427AA6
:1055680081F460F4A0F4C0FCE0FCE0FCE0FCE0FCAA
:10557800E0FCE0FCE0FCE0FCE0FCE0FCE0FCE0FC43
:10558800E0FCE0FCE0FCE0FCE0FCE0FCE0FCE0FC33
:10559800E0FCE0FCE0FCE0FCE0FCE0FCE0FCE0FC23
:1055A800E0FCE0FCE0FC60FC20FC40FC20FC40FC53
:1055B80040FC40FC40FC20FC20FC20FC20FC00FCC3
:1055C800E0F3A0EBA0F3A16900008E6B1495728440
:1055D80008429EF7FFFFFFFFFFFFFFFFFFFFFFFFF0
:1055E800495A46C9E9F1C8E9C8E9C8F1C8E1412002
:1055F800000061083CE7FFFFFFFFFFFFFFFFFFFF21
:10560800DFFFFFFF0C5B0000629AA0EBA0EBC0F38A
:1056180000FC00FC20FC20FC20FC20FC20FC40FCC2
:1056280020FC20FC20FC20FC00FCE0FBC0F3A0EBED
:10563800A0EB80EB40E300E30149B0CDD3FE92FE3E
:1056480092FE92FE92FEB3FEC541C030C5DCA38A2D
:1056580001B2415165C4A5D4A2598179849BC48201
:10566800C292E1FC80F4A0FCC0FCE0FCE0FCE0FCA1
:10567800E0FCE0FCE0FCE0FCE0FCE0FCE0FCE0FC42
:10568800E0FCE0FCE0FCE0FCE0FCE0FCE0FCE0FC32
:10569800E0FCE0FCE0FCE0FCE0FCE0FCE0FCE0FC22
:1056A800E0FCE0FCE0FC40FC20FC40FC20FC40FC72
:1056B80040FC20FC20FC20FC20FC20FC20FC00FC02
:1056C800C0F3A0F301C300088629F494F4948E6B08
:1056D8000C63FFFFFFFFFFFFFFFFFFFFFFFF5CDF24
:1056E8002551A8E9C8E9C8E9C8E9C9F987C1000886
:1056F8000000000096B5FFFFFFFFFFFFFFFFFFFF61
:10570800FFFFFFFF5DEFC3102010E2BA80F3C0EB8C
:10571800E0F300FC20FC20FC20FC40FC20FC20FCEA
:1057280020FC20FC20FC20FC00FCE0F3C0EBA0EBFC
:10573800A1E361DB41E320E30059CDB4F3FE92FE1F
:1057480092FE91FED3FE0FC5C120E48204BCE39A09
:105758006181A382A4DCA4DC237222A2E26946BC94
:10576800E261E1A2C1FCE0FCE0FCE0FCE0FCE0FC62
:10577800E0FCE0FCE0FCE0FCE0FCE0FCE0FCE0FC41
:10578800E0FCE0FCE0FCE0FCE0FCE0FCE0FCE0FC31
:10579800E0FCE0FCE0FCE0FCE0FCE0FCE0FCE0FC21
:1057A800E0FCE0FCC0FC40FC20FC40FC20FC40FC91
:1057B80040FC40FC20FC20FC20FC20FC00FCE0F32A
:1057C800C0EBA0F341590000F07BD4941495AA4A89
:1057D800D394FFFFFFFFFFFFFFFFFFFFFFFF17B699
:1057E800C368E9F9C8E9C8E9C8E9E9F90591000019
:1057F800200000008E73FFFFFFFFFFFFFFFFFFFF8A
:10580800FFFFFFFFFFFF518C0000A13062D380EB48
:10581800C0EBE0FB00FC20FC20FC20FC20FC40FC52
:1058280020FC20FC20FC00FCE0FBC0EBA0EB21D31B
:10583800C1406028029A41EB2071CB8B13FF92FE86
:1058480092FE91FEF3FE0C9CC251C5B3E4B364B35F
:10585800226105B484D4A4DCC38241A2A2BAE2695D
:10586800E5AB236A227AE1CBE0FCE0FCE0FCE0FC5B
:10587800E0FCE0FCE0FCE0FCE0FCE0FCE0FCE0FC40
:10588800E0FCE0FCE0FCE0FCE0FCE0FCE0FCE0FC30
:10589800E0FCE0FCE0FCE0FCE0FCE0FCE0FCE0FC20
:1058A800E0FCE0FCC0FC20FC20FC40FC40FC40FC90
:1058B80040FC20FC40FC20FC20FC20FC00FCC0F349
:1058C800A0F3E1C20008E731F49CB38CF4942842B9
:1058D80059CEFFFFFFFFFFFFFFFFDFFFFFFFB28C87
:1058E800A488E9F9C8E9C8E9A9E9E9F18240000012
:1058F800000000008631DFFFFFFFFFFFFFFFFFFF13
:10590800FFFFFFFFFFFF3CE729422200415981EBDF
:1059180080EBC0F3E0FB00FC20FC20FC20FC20FC1A
:1059280020FC20FC20FC00FCE0F3A0EBA1FB416183
:10593800A249846A401022AAE1A1C86AF3FE92FE35
:1059480092FEB2FE54FF6BACC37A24C44372236246
:10595800E369A4DC64D4A4DC449B0192A0F3A1BA5B
:10596800A261E2598128A19200FDE0FCE0FCE0FC84
:10597800E0FCE0FCE0FCE0FCE0FCE0FCE0FCE0FC3F
:10598800E0FCE0FCE0FCE0FCE0FCE0FCE0FCE0FC2F
:10599800E0FCE0FCE0FCE0FCE0FCE0FCE0FCE0FC1F
:1059A800E0FCE0FCA0FC20FC20FC40FC40FC40FCAF
:1059B80040FC20FC20FC20FC20FC00FCE0F3C0EBB9
:1059C800A0F361610100307CF494D38C928C694A15
:1059D8009EF7FFFFFFFFFFFFFFFFDFFFFFFF8E7355
:1059E800E5A8E9F9C8E9A8D9E9F187C100080000E4
:1059F80000000000000059CEFFFFFFFFFFFFFFFF80
:105A0800FFFFFFFFFFFFFFFF9294CB520000429A77
:105A1800A0EBA0EBE0F300FC00FC20FC20FC20FC49
:105A280020FC20FC20FC00FCC0F361DB028AA251B0
:105A380045BCA4B3847220186169E551B2FE92FE98
:105A4800D3FEADB44DA44BA4E38A64C4449BA128FF
:105A5800038BA4DC64CCA4DC84A3019260EBA0EBF0
:105A680021E4A2BB22CCE1FCC0FCE0FCE0FCE0FCB1
:105A7800E0FCE0FCE0FCE0FCE0FCE0FCE0FCE0FC3E
:105A8800E0FCE0FCE0FCE0FCE0FCE0FCE0FCE0FC2E
:105A9800E0FCE0FCE0FCE0FCE0FCE0FCE0FCE0FC1E
:105AA800E0FC00FD80FC20FC20FC40FC20FC40FCCD
:105AB80040FC20FC20FC20FC20FC00FCE0F3A0F3D0
:105AC80001CB0008E8391495B38CF494107C0C636E
